:1000000000800010ED1A0000A11B0000A11B0000E1
:10001000A11B0000A11B0000A11B000000000000AC
:10002000000000000000000000000000A11B000014
:10003000A11B000000000000A11B0000F10F000048
:10004000A11B0000A11B0000A11B0000A11B0000C0
:10005000A11B0000A11B0000A11B0000A11B0000B0
:10006000A11B0000A11B0000A11B0000A11B0000A0
:10007000A11B0000A11B0000A11B0000A11B000090
:10008000A11B0000A11B0000A11B0000A11B000080
:10009000A11B0000A11B0000A11B0000A11B000070
:1000A000A11B0000A11B0000A11B0000A11B000060
:1000B000A11B0000A11B0000A11B0000A11B000050
:0C00C000A11B0000A11B0000A11B000000
:1000CC0080B485B000AF786039607B681F2B03D992
:1000DC007B68A3F1200300E07B68FB607B681F2B2F
:1000EC0025D84FF44043C4F20F034FF44042C4F2FE
:1000FC000F02D2F8A811FA684FF0030000FA02F2CE
:10010C006FEA02020A40C3F8A8214FF44043C4F23C
:10011C000F034FF44042C4F20F02D2F8A811FA6850
:10012C00386800FA02F20A43C3F8A82124E04FF41D
:10013C004043C4F20F034FF44042C4F20F02D2F812
:10014C00AC11FA684FF0030000FA02F26FEA0202F7
:10015C000A40C3F8AC214FF44043C4F20F034FF4F0
:10016C004042C4F20F02D2F8AC11FA68386800FAB7
:10017C0002F20A43C3F8AC2107F11407BD4680BC58
:10018C00704700BF80B485B000AF78607B681F2BD0
:10019C0009D87B68FB604FF44043C4F20F03D3F8DB
:1001AC00A831BB600AE07B68A3F12003FB604FF42D
:1001BC004043C4F20F03D3F8AC31BB60FB68BA68A0
:1001CC0022FA03F303F00303BB60BB68184607F184
:1001DC001407BD4680BC704780B584B000AF786012
:1001EC004CF20003C2F207031B68BB607868FFF790
:1001FC00C9FFF860FB68032B1AD801A252F823F050
:10020C001D020000250200002D0200003502000036
:10021C004FF00403FB600BE04FF00103FB6007E0C1
:10022C004FF00203FB6003E04FF00803FB6000BFDC
:10023C00BA68FB68B2FBF3F3BB60BB68184607F106
:10024C001007BD4680BD00BF80B483B000AF78609E
:10025C000B46FB70FB78012B13D14FF44042C4F2D8
:10026C000F024FF44043C4F20F03D3F8C410786864
:10027C004FF2DE73CEF6EF7303400B43C2F8C4307B
:10028C0017E0FB78002B14D14FF44042C4F20F025C
:10029C004FF44043C4F20F03D3F8C4107B686FEAE9
:1002AC00030319404FF2DE73CEF6EF730B40C2F826
:1002BC00C43007F10C07BD4680BC704780B400AF5A
:1002CC004FF44043C4F20F034FF00002C3F8C020B8
:1002DC0030BFBD4680BC704780B400AF4FF46D4357
:1002EC00CEF200034FF004021A614FF44043C4F203
:1002FC000F034FF00802C3F8C02030BFBD4680BCCE
:10030C00704700BF80B400AF4FF46D43CEF20003D2
:10031C004FF004021A614FF44043C4F20F034FF044
:10032C000902C3F8C02030BFBD4680BC704700BF77
:10033C0080B400AF4FF46D43CEF200034FF00402D3
:10034C001A614FF44043C4F20F034FF00302C3F899
:10035C00C02030BFBD4680BC704700BF80B485B0A4
:10036C0000AF0346FB714FF00003FB60FB79042BDD
:10037C002AD801A252F823F099030000A50300002B
:10038C00B1030000BD030000C90300004FF440435B
:10039C00C2F20903FB6018E04CF22003C2F209031D
:1003AC00FB6012E04CF24003C2F20903FB600CE06C
:1003BC004CF26003C2F20903FB6006E04CF28003CE
:1003CC00C2F20903FB6000E000BFFB68184607F1AE
:1003DC001407BD4680BC704780B485B000AF03469F
:1003EC00FB714FF00003FB60FB79042B2AD801A2B0
:1003FC0052F823F015040000210400002D04000025
:10040C0039040000450400004FF44043C2F20903D4
:10041C00FB6018E04CF22003C2F20903FB6012E00F
:10042C004CF24003C2F20903FB600CE04CF2600397
:10043C00C2F20903FB6006E04CF28003C2F209032E
:10044C00FB6000E000BFFB68184607F11407BD46CF
:10045C0080BC704780B485B000AF0346FB714FF091
:10046C000003FB60FB79042B2AD801A252F823F07D
:10047C00910400009D040000A9040000B5040000D4
:10048C00C10400004FF44043C2F20903FB6018E0C2
:10049C004CF22003C2F20903FB6012E04CF2400361
:1004AC00C2F20903FB600CE04CF26003C2F20903D8
:1004BC00FB6006E04CF28003C2F20903FB6000E033
:1004CC0000BFFB68184607F11407BD4680BC704797
:1004DC0080B584B000AF396013460246FA71BB7127
:1004EC00FB791846FFF73AFFF860FB68002B11D038
:1004FC00BB79002B06D0FB681A683B681A43FB6873
:10050C001A6007E0FB681A683B686FEA03031A403D
:10051C00FB681A6007F11007BD4680BD80B584B03A
:10052C0000AF03463960FB71FB791846FFF716FFE5
:10053C00F860FB68002B02D0FB683A689A6107F1FF
:10054C001007BD4680BD00BF80B584B000AF034628
:10055C003960FB71FB791846FFF700FFF860FB6808
:10056C00002B02D0FB683A68DA6107F11007BD4630
:10057C0080BD00BF80B584B000AF0346FB71FB7932
:10058C001846FFF7EBFEF860FB68002B02D0FB6807
:10059C005B6901E04FF00003184607F11007BD46F8
:1005AC0080BD00BF80B483B000AF396013460246F3
:1005BC00FA71BB71FB79002B09D1BB79002B06D1E9
:1005CC0048F28003C4F202033A681A6127E0FB790F
:1005DC00022B09D1BB79002B06D148F28003C4F25F
:1005EC0002033A681A631AE0FB79002B09D1BB7934
:1005FC00012B06D148F28003C4F202033A685A6117
:10060C000DE0FB79022B09D1BB79012B06D148F205
:10061C008003C4F202033A685A6300E0FEE707F174
:10062C000C07BD4680BC704780B483B000AF396006
:10063C0013460246FA71BB71FB79002B0FD1BB79C3
:10064C00002B0CD148F28003C4F202035A683B68B9
:10065C0022FA03F3DBB203F00103DBB239E0FB79DE
:10066C00022B0FD1BB79002B0CD148F28003C4F2C2
:10067C0002035A6A3B6822FA03F3DBB203F001036C
:10068C00DBB226E0FB79002B0FD1BB79012B0CD10F
:10069C0048F28003C4F202039A683B6822FA03F31F
:1006AC00DBB203F00103DBB213E0FB79022B0FD1B9
:1006BC00BB79012B0CD148F28003C4F202039A6A75
:1006CC003B6822FA03F3DBB203F00103DBB200E078
:1006DC00FEE7184607F10C07BD4680BC704700BF0B
:1006EC0080B483B000AF03463960FB71FB79002BFB
:1006FC0006D148F28003C4F202033A68DA600AE0D9
:10070C00FB79022B06D148F28003C4F202033A684B
:10071C00DA6200E0FEE707F10C07BD4680BC7047CB
:10072C0080B582B000AF396013460246FA71BB71D6
:10073C00FA79BB79104639681A46FFF7C9FE07F1FA
:10074C000807BD4680BD00BF80B582B000AF034630
:10075C003960FB71FB7918463968FFF7DFFE07F14A
:10076C000807BD4680BD00BF80B582B000AF034610
:10077C003960FB71FB7918463968FFF7E5FE07F124
:10078C000807BD4680BD00BF80B582B000AF0346F0
:10079C00FB71FB791846FFF7EDFE0346184607F18F
:1007AC000807BD4680BD00BF80B582B000AF396080
:1007BC0013460246FA71BB71FA79BB791046396857
:1007CC001A46FFF7EFFE07F10807BD4680BD00BFD4
:1007DC0080B582B000AF396013460246FA71BB7126
:1007EC00FA79BB79104639681A46FFF71DFF0346A4
:1007FC00184607F10807BD4680BD00BF80B582B022
:10080C0000AF03463960FB71FB7918463968FFF776
:10081C0067FF07F10807BD4680BD00BF80B584B0F7
:10082C0000AF396013460246FA71BB71FB7918466A
:10083C00FFF794FDF860FB68002B11D0BB79002BFF
:10084C0006D0FB681A693B681A43FB681A6107E01B
:10085C00FB681A693B686FEA03031A40FB681A616C
:10086C0007F11007BD4680BD80B584B000AFF871AC
:10087C00B971BA80FB70FB791846FFF7ADFDF860D3
:10088C00FB68002B35D0FB78002B14D0BB79002BE8
:10089C0008D0FB685B889AB2BB8813439AB2FB689A
:1008AC005A8026E0FB681B889AB2BB8813439AB225
:1008BC00FB681A801DE0BB79002B0DD0FB685B88B0
:1008CC009BB29AB2BB886FEA03039BB213409BB2F4
:1008DC009AB2FB685A800CE0FB681B889BB29AB2F8
:1008EC00BB886FEA03039BB213409BB29AB2FB68BE
:1008FC001A8007F11007BD4680BD00BF80B584B0DB
:10090C0000AFF871B971BA80FB70FB791846FFF72C
:10091C0063FDF860FB68002B35D0FB78002B14D0FE
:10092C00BB79002B08D0FB685B8A9AB2BB88134357
:10093C009AB2FB685A8226E0FB681B8A9AB2BB8883
:10094C0013439AB2FB681A821DE0BB79002B0DD0C1
:10095C00FB685B8A9BB29AB2BB886FEA03039BB2BB
:10096C0013409BB29AB2FB685A820CE0FB681B8A5C
:10097C009BB29AB2BB886FEA03039BB213409BB243
:10098C009AB2FB681A8207F11007BD4680BD00BF02
:10099C0080B584B000AF13460246FA710A46BA71AC
:1009AC00BB80FB791846FFF717FDF860FB68002B3E
:1009BC0009D0BB79002B03D0FB68BA885A8302E0BC
:1009CC00FB68BA881A8307F11007BD4680BD00BFCB
:1009DC0080B584B000AF13460246FA710A46BA716C
:1009EC00BB80FB791846FFF7F7FCF860FB68002B1F
:1009FC0009D0BB79002B03D0FB68BA88DA8302E0FC
:100A0C00FB68BA889A8307F11007BD4680BD00BF0A
:100A1C0080B584B000AF02460B46FA71BB71FB790E
:100A2C001846FFF7D9FCF860FB68002B0AD0BB799D
:100A3C00002B03D0FB68DB8A9BB205E0FB689B8A2A
:100A4C009BB201E04FF00003184607F11007BD46BA
:100A5C0080BD00BF80B584B000AFF871B9717A71F8
:100A6C003B71FB791846FFF7F5FCF860FB68002B2F
:100A7C0022D03B79002B0DD0BB79032B1CD8BB7932
:100A8C00BA79F9688A5CD1B27A790A43D1B2FA6838
:100A9C00D15411E0BB79032B0ED8BB79BA79F96824
:100AAC008A5CD2B2D1B27A796FEA0202D2B20A402F
:100ABC00D2B2D1B2FA68D15407F11007BD4680BD4D
:100ACC0080B584B000AFF871B9717A713B71FB7964
:100ADC001846FFF7BFFCF860FB68002B26D03B796B
:100AEC00002B0FD0BB79032B20D8BB79BA79F968CE
:100AFC008A18127CD1B27A790A43D2B2F968CB182F
:100B0C001A7413E0BB79032B10D8BB79BA79F96846
:100B1C008A18127CD2B2D1B27A796FEA0202D2B2BE
:100B2C000A40D2B2D2B2F968CB181A7407F1100786
:100B3C00BD4680BD80B584B000AF13460246FA7145
:100B4C000A46BA717B71FB791846FFF783FCF86093
:100B5C00FB68002B07D0BB79032B04D8BB79FA6850
:100B6C00D3187A791A7607F11007BD4680BD00BFFD
:100B7C0080B584B000AF13460246FA710A46BA71CA
:100B8C007B71FB791846FFF765FCF860FB68002B5E
:100B9C0007D0BB79032B04D8BB79FA68D3187A79C0
:100BAC001A7707F11007BD4680BD00BF80B584B031
:100BBC0000AF02460B46FA71BB71FB791846FFF782
:100BCC0049FCF860FB68002B08D0BB79032B05D8D7
:100BDC00BB79FA68D3181B7DDBB201E04FF0000340
:100BEC00184607F11007BD4680BD00BF80B483B026
:100BFC0000AF4FF46143CEF200034FF0FF32C3F865
:100C0C0080204FF46143CEF200034FF00102C3F891
:100C1C0084204FF46143CEF200034FF0FF32C3F84F
:100C2C0080214FF46143CEF200034FF00102C3F870
:100C3C0084214FF00003FB710DE04FF46143CEF2C1
:100C4C000003FA799B184FF0000283F80023FB791C
:100C5C0003F10103FB71FB791F2BEED907F10C0794
:100C6C00BD4680BC704700BF80B483B000AF4FF46A
:100C7C006D43CEF200034FF020625A604FF46D4387
:100C8C00CEF200034FF000029A604FF46D43CEF2A7
:100C9C0000034FF00002C0F2FA52DA604FF46D43D9
:100CAC00CEF200034FF000021A614FF46D43CEF206
:100CBC0000034FF000025A614FF00003FB710CE08F
:100CCC004FF46D43CEF20003FA799B184FF00002FB
:100CDC001A76FB7903F10103FB71FB791F2BEFD91A
:100CEC004FF46D43CEF200034FF000025A624FF402
:100CFC006D43CEF200034FF0FF329A624FF46D4316
:100D0C00CEF200034FF0FF32DA624FF46D43CEF2B5
:100D1C0000034FF0FF321A6307F10C07BD4680BC8D
:100D2C00704700BF80B483B000AF78604FF46D4360
:100D3C00CEF200037A6822F0404222F07F029A60E1
:100D4C0007F10C07BD4680BC704700BF80B487B06C
:100D5C0000AF13460246FA710A46BA717B71BB7931
:100D6C007B61FB794FEA43033B614FF44043C4F290
:100D7C000203FB607B690F2B07D97B69A3F110037E
:100D8C007B613B6903F101033B613B694FEA8303E0
:100D9C00FA68D3183A694FEA8202F9688A1811681E
:100DAC007A694FEA42024FF0030000FA02F26FEA4E
:100DBC0002020A401A603B694FEA8303FA68D318AF
:100DCC003A694FEA8202F9688A18116878797A6967
:100DDC004FEA420200FA02F20A431A6007F11C07BA
:100DEC00BD4680BC704700BF80B487B000AF1346CF
:100DFC000246FA710A46BA717B71BB797B61FB7949
:100E0C004FEA43033B614CF24003C4F20203FB6024
:100E1C007B690F2B07D97B69A3F110037B613B69BD
:100E2C0003F101033B613B694FEA8303FA68D31872
:100E3C003A694FEA8202F9688A1811687A694FEAAE
:100E4C0042024FF0030000FA02F26FEA02020A407B
:100E5C001A603B694FEA8303FA68D3183A694FEA80
:100E6C008202F9688A18116878797A694FEA420225
:100E7C0000FA02F20A431A6007F11C07BD4680BC57
:100E8C00704700BF80B485B000AF13460246FA71BC
:100E9C000A46BA717B714CF26803C4F20203FB6020
:100EAC007B79012B12D1FB794FEA8303FA68D318B3
:100EBC00FA794FEA8202F9688A181168BA794FF008
:100ECC00010000FA02F20A431A6013E0FB794FEAC0
:100EDC008303FA68D318FA794FEA8202F9688A1800
:100EEC001168BA794FF0010000FA02F26FEA0202BF
:100EFC000A401A6007F11407BD4680BC704700BF5A
:100F0C0080B483B000AF0346FB71FB79012B0CD18D
:100F1C004FF44043C4F202034FF44042C4F20202C5
:100F2C00926A42F008029A620EE0FB79002B0BD118
:100F3C004FF44043C4F202034FF44042C4F20202A5
:100F4C00926A22F008029A6207F10C07BD4680BC37
:100F5C00704700BF80B485B000AF02460B46FA71F3
:100F6C00BB71FB79012B02D14FF00503FB60BB7900
:100F7C00002B02D14FF00A03FB604FF44043C4F244
:100F8C000203FA68DA6707F11407BD4680BC7047A4
:100F9C0080B582B000AF78607B6819787B685A782E
:100FAC007B689B78084611461A46FFF7CFFE7B6894
:100FBC0019787B685A787B68DB78084611461A46A4
:100FCC00FFF712FF7B6819787B685A787B681B796E
:100FDC00084611461A46FFF755FF07F10807BD46AC
:100FEC0080BD00BF80B582B000AF40F20003C1F2FB
:100FFC0000031B68002B0CD040F20003C1F200036D
:10100C001B6803F1FF3240F20003C1F200031A60C7
:10101C001FE0FB79002B09D04FF003004FF000715B
:10102C00FFF77CFA4FF00003FB7108E04FF0030070
:10103C004FF00071FFF788FA4FF00103FB7140F29B
:10104C000803C1F200031A6840F20003C1F2000366
:10105C001A6040F20403C1F200031B68002B0BD092
:10106C0040F20403C1F200031B6803F1FF3240F2AB
:10107C000403C1F200031A6000F02EF907F108070F
:10108C00BD4680BD80B483B000AF786040F20403ED
:10109C00C1F200037A681A6000BF40F20403C1F287
:1010AC0000031B68002BF8D107F10C07BD4680BC70
:1010BC00704700BF80B500AF4FF0010000F00AF898
:1010CC004FF0010000F0D6F84FF0010000F0ACF842
:1010DC0080BD00BF80B584B000AF78604CF20003D7
:1010EC00C2F207031B68FB604CF20003C2F2070359
:1010FC001A6844F6D353C1F26203A3FB02034FEA0E
:10110C0093134FF08072B2FBF3F3184600F0FCFD22
:10111C000346BB60786800F0F7FD03461846B968D3
:10112C0000F0B6FE0346002B00D0FEE74EF2100393
:10113C00CEF200034EF21002CEF20002126842F020
:10114C0004021A604EF21003CEF20003F96844F662
:10115C00D352C1F26202A2FB01024FEA92127968E9
:10116C0001FB02F202F1FF325A6007F11007BD4693
:10117C0080BD00BF80B584B000AF786039607A68FC
:10118C0044F6D353C1F26203A3FB02034FEA931359
:10119C004FF08072B2FBF3F3184600F0B5FD034636
:1011AC00FB60386800F0B0FD03461846F96800F0A3
:1011BC006FFE0346002B00D0FEE74EF21003CEF27A
:1011CC0000034EF21002CEF20002126822F004026A
:1011DC001A607A6844F6D353C1F26203A3FB02137C
:1011EC004FEA93133A6802FB03F303F1FF331846FB
:1011FC0000F08AFD0346FB604EF21003CEF20003B2
:10120C00796844F6D352C1F26202A2FB01024FEAA2
:10121C009212396801FB02F202F1FF325A6007F1B7
:10122C001007BD4680BD00BF80B483B000AF03463D
:10123C00FB71FB79012B0CD14EF21003CEF20003A3
:10124C004EF21002CEF20002126842F001021A6055
:10125C000BE04EF21003CEF200034EF21002CEF26F
:10126C000002126822F001021A6007F10C07BD4659
:10127C0080BC704780B483B000AF0346FB71FB7930
:10128C00012B0CD14EF21003CEF200034EF21002E1
:10129C00CEF20002126842F002021A600BE04EF22B
:1012AC001003CEF200034EF21002CEF200021268CE
:1012BC0022F002021A6007F10C07BD4680BC704791
:1012CC0080B400AF4EF21003CEF200039B681846B8
:1012DC00BD4680BC704700BF80B400AF4EF2100317
:1012EC00CEF200034EF21002CEF20002126822F48B
:1012FC0080321A60BD4680BC704700BF80B584B098
:10130C0000AF03463960FB714FF00003FB604FF0F8
:10131C000003BB60FB79012B24D0022B00F09580DD
:10132C00002B40F0AE804FF41063C0F23D03FB6025
:10133C00FA684DF68363C4F21B33A3FB02134FEA26
:10134C0093433A684FEA920202FB03F3BB60BB681B
:10135C00FE2B40F297804FF08043BA685A604FF0F2
:10136C00010396E04CF20003C2F207031B684FEA3C
:10137C009303FB60FA684DF68363C4F21B33A3FB43
:10138C0002134FEA93433A684FEA920202FB03F3CB
:10139C00BB60BB68FE2B0CD94FF000004FF0000176
:1013AC00FEF78EFE4FF08043BA685A604FF001038F
:1013BC006FE04CF20003C2F207031B684FEA5303C1
:1013CC00FB60FA684DF68363C4F21B33A3FB021374
:1013DC004FEA93433A684FEA920202FB03F3BB6075
:1013EC00BB68FE2B0CD94FF000004FF00201FEF74A
:1013FC0067FE4FF08043BA685A604FF0010348E033
:10140C004CF20003C2F207031B68FB60FA684DF64E
:10141C008363C4F21B33A3FB02134FEA93433A6872
:10142C004FEA920202FB03F3BB60BB68FE2B2BD985
:10143C004FF000004FF00101FEF742FE4FF08043E9
:10144C00BA685A604FF0010323E04FF40043FB608D
:10145C00FA684DF68363C4F21B33A3FB02134FEA05
:10146C0093433A684FEA920202FB03F3BB60BB68FA
:10147C00FE2B0BD94FF08043BA685A604FF0010332
:10148C0007E004E000BF02E000BF00E000BF4FF047
:10149C000003184607F11007BD4680BD80B582B029
:1014AC0000AF02460B46FA71BB714FF000004FF0D3
:1014BC000001FEF705FE4FF080434FF080421269A9
:1014CC0022F003021A614FF080434FF08042116901
:1014DC00FA790A431A61BB79012B09D14FF0804389
:1014EC004FF080421278D2B242F00202D2B21A709D
:1014FC0007F10807BD4680BD80B584B000AF7860A9
:10150C004FF080431B69FB60FB6803F00303FB6037
:10151C00FB68DBB218467968FFF7F0FE4FF08043AA
:10152C004FF080421278D2B242F00102D2B21A705D
:10153C0000F03CF807F11007BD4680BD80B400AF49
:10154C004FF080431B78DBB203F004034FEA9303A4
:10155C00DBB21846BD4680BC704700BF80B400AFFC
:10156C004FF080434FF080421278D2B222F0040246
:10157C00D2B21A70BD4680BC704700BF80B584B033
:10158C0000AF78604FF080431B69FB60FB6803F091
:10159C000303FB60FB68DBB218467968FFF7AEFE0D
:1015AC0000F004F807F11007BD4680BD80B400AF11
:1015BC0072B64FF080434FF0AA021A724FF080437C
:1015CC004FF055021A7262B6BD4680BC704700BF20
:1015DC0080B400AF4FF08043DB681846BD4680BC3A
:1015EC00704700BF80B500AF4FF080434FF0804292
:1015FC001278D2B222F00102D2B21A7000F060F965
:10160C0000F00AF8FFF756FD40F20803C1F20003A0
:10161C004FF47A721A6080BD80B500AF4FF00300B2
:10162C004FF000714FF00102FEF752FF4FF0010036
:10163C004FF07F714FF00102FEF74AFF4FF00100AF
:10164C004FF07F71FEF76AFF80BD00BF80B582B09E
:10165C0000AFFFF7C7FFFB79002B13D04FF0010051
:10166C004FF02A71FEF75AFF4FF001004FF0AA71AC
:10167C00FEF76AFF4FF47A70FFF704FD4FF000039A
:10168C00FB71E8E74FF001004FF0AA71FEF746FF3F
:10169C004FF001004FF02A71FEF756FF4FF47A70AD
:1016AC00FFF7F0FC4FF00103FB71D4E780B400AFFF
:1016BC004FF44043C4F20F03D3F888304FEA13635E
:1016CC0003F00303032B40F0A6804FF44043C4F215
:1016DC000F03D3F80C3103F00303032B00F2ED805E
:1016EC0001A252F823F000BF051700006517000097
:1016FC00C5170000051700004FF44043C4F20F0358
:10170C00D3F888304FEA43434FEA534303F10102C5
:10171C004FF49053C0F27A0303FB02F24FF44043B0
:10172C00C4F20F03D3F888304FEA1343DBB203F152
:10173C000103B2FBF3F24FF44043C4F20F03D3F8AE
:10174C000431DBB203F10103B2FBF3F24CF2000300
:10175C00C2F207031A60B0E04FF44043C4F20F0327
:10176C00D3F888304FEA43434FEA534303F1010265
:10177C004FF45853C0F26E1303FB02F24FF4404384
:10178C00C4F20F03D3F888304FEA1343DBB203F1F2
:10179C000103B2FBF3F24FF44043C4F20F03D3F84E
:1017AC000431DBB203F10103B2FBF3F24CF20003A0
:1017BC00C2F207031A6080E04FF44043C4F20F03F7
:1017CC00D3F888304FEA43434FEA534303F1010304
:1017DC004FF47A4202FB03F24FF44043C4F20F037E
:1017EC00D3F888304FEA1343DBB203F10103B2FBA9
:1017FC00F3F24FF44043C4F20F03D3F80431DBB2DD
:10180C0003F10103B2FBF3F24CF20003C2F2070343
:10181C001A6000BF51E04FF44043C4F20F03D3F8F9
:10182C000C3103F00303032B47D801A252F823F029
:10183C004D18000077180000A11800004D1800008A
:10184C004FF44043C4F20F03D3F80431DBB203F17D
:10185C0001024FF41063C0F23D03B3FBF2F24CF201
:10186C000003C2F207031A6027E04FF44043C4F2AE
:10187C000F03D3F80431DBB203F101024FF4D85358
:10188C00C0F2B703B3FBF2F24CF20003C2F207034F
:10189C001A6012E04FF44043C4F20F03D3F8043142
:1018AC00DBB203F101034FF4FA42B2FBF3F24CF258
:1018BC000003C2F207031A6000BFBD4680BC70472C
:1018CC0080B400AF4FF44043C4F20F034FF020023A
:1018DC00C3F8A02100BF4FF44043C4F20F03D3F868
:1018EC00A03103F04003002BF5D04FF44043C4F279
:1018FC000F034FF00202C3F804214FF44043C4F22B
:10190C000F034FF00102C3F80C214FF44043C4F213
:10191C000F034FF01802C0F20102C3F884204FF4F9
:10192C004043C4F20F034FF0AA02C3F88C204FF4CB
:10193C004043C4F20F034FF05502C3F88C204FF410
:10194C004043C4F20F034FF00102C3F880204FF460
:10195C004043C4F20F034FF0AA02C3F88C204FF49B
:10196C004043C4F20F034FF05502C3F88C2000BF64
:10197C004FF44043C4F20F03D3F8883003F0806374
:10198C00002BF5D04FF44043C4F20F034FF0030289
:10199C00C3F880204FF44043C4F20F034FF0AA0267
:1019AC00C3F88C204FF44043C4F20F034FF05502A0
:1019BC00C3F88C2000BF4FF44043C4F20F03D3F89C
:1019CC00883003F04073002BF5D04FF44043C4F241
:1019DC000F034FF01302C3F8A4204FF44043C4F29A
:1019EC000F034FF0AA02C3F8AC204FF44043C4F2EB
:1019FC000F034FF05502C3F8AC204FF44043C4F230
:101A0C000F034FF00102C3F8A0204FF44043C4F27F
:101A1C000F034FF0AA02C3F8AC204FF44043C4F2BA
:101A2C000F034FF05502C3F8AC2000BF4FF44043F6
:101A3C00C4F20F03D3F8A83003F48063002BF5D065
:101A4C004FF44043C4F20F034FF00302C3F8A0203D
:101A5C004FF44043C4F20F034FF0AA02C3F8AC207A
:101A6C004FF44043C4F20F034FF05502C3F8AC20BF
:101A7C0000BF4FF44043C4F20F03D3F8A83003F473
:101A8C004073002BF5D04FF44043C4F20F034FF0DA
:101A9C000002C3F8A8214FF44043C4F20F034FF0E7
:101AAC000002C3F8AC214FF44043C4F20F0348F2D8
:101ABC000802C0F20012C3F8C4204FF44043C4F231
:101ACC000F034FF02002C3F8C8214FF44043C4F277
:101ADC000F034FF4A0421A60BD4680BC704700BF94
:101AEC00684620F007018D4681B583B000AF41F602
:101AFC00B063C0F200037B604CF20003C2F2070338
:101B0C003B600BE07B681A683B681A603B6803F12A
:101B1C0004033B607B6803F104037B603A684CF27E
:101B2C000803C2F207039A42ECD340F20003C1F25D
:101B3C0000033B6007E03B684FF000021A603B6813
:101B4C0003F104033B603A6840F21003C1F2000356
:101B5C009A42F0D34CF20803C2F207033B6007E051
:101B6C003B684FF000021A603B6803F104033B60D2
:101B7C003A684CF20803C2F207039A42F0D3FFF71B
:101B8C009FFEFFF763FDFEE780B400AFBD4680BC4F
:101B9C00704700BF80B400AFFEE700BF80F000408C
:101BAC0002E000BF81F0004142001FBF5FEA410329
:101BBC0092EA030F7FEA226C7FEA236C6AD04FEA29
:101BCC001262D2EB1363C1BFD2184140484041406E
:101BDC00B8BF5B42192B88BF704710F0004F40F420
:101BEC00000020F07F4018BF404211F0004F41F43C
:101BFC00000121F07F4118BF494292EA030F3FD008
:101C0C00A2F1010241FA03FC10EB0C00C3F120031A
:101C1C0001FA03F100F0004302D5494260EB4000A9
:101C2C00B0F5000F13D3B0F1807F06D340084FEA14
:101C3C00310102F10102FE2A51D2B1F1004F40EB09
:101C4C00C25008BF20F0010040EA03007047490071
:101C5C0040EB000010F4000FA2F10102EDD1B0FA3C
:101C6C0080FCACF1080CB2EB0C0200FA0CF0AABF31
:101C7C0000EBC25052421843BCBFD04018437047CF
:101C8C0092F0000F81F4000106BF80F400000132D5
:101C9C00013BB5E74FEA41037FEA226C18BF7FEAAC
:101CAC00236C21D092EA030F04D092F0000F08BFEE
:101CBC000846704790EA010F1CBF0020704712F0D5
:101CCC007F4F04D1400028BF40F00040704712F114
:101CDC0000723CBF00F50000704700F0004343F079
:101CEC00FE4040F4000070477FEA226216BF0846AF
:101CFC007FEA23630146420206BF5FEA412390EA72
:101D0C00010F40F4800070474FF0000304E000BF67
:101D1C0010F0004348BF40425FEA000C08BF704718
:101D2C0043F0964301464FF000001CE050EA0102DC
:101D3C0008BF70474FF000030AE000BF50EA0102F1
:101D4C0008BF704711F0004302D5404261EB4101DE
:101D5C005FEA010C02BF84460146002043F0B64303
:101D6C0008BFA3F18053A3F50003BCFA8CF2083A28
:101D7C00A3EBC25310DB01FA02FC634400FA02FC31
:101D8C00C2F12002BCF1004F20FA02F243EB020038
:101D9C0008BF20F00100704702F1200201FA02FC9A
:101DAC00C2F1200250EA4C0021FA02F243EB02008D
:101DBC0008BF20EADC7070474FF0FF3C06E000BF24
:101DCC004FF0010C02E000BF4FF0010C4DF804CDB8
:101DDC004FEA40024FEA41037FEA226C18BF7FEAC8
:101DEC00236C11D001B052EA530C18BF90EA010FCA
:101DFC0058BFB2EB030088BFC81738BF6FEAE17059
:101E0C0018BF40F0010070477FEA226C02D15FEAF4
:101E1C00402C05D17FEA236CE4D15FEA412CE1D060
:101E2C005DF8040B704700BF844608466146FFE727
:101E3C000FB5FFF7C9FF002848BF10F1000F0FBD09
:101E4C004DF808EDFFF7F4FF0CBF012000205DF802
:101E5C0008FB00BF4DF808EDFFF7EAFF34BF012087
:101E6C0000205DF808FB00BF4DF808EDFFF7E0FF20
:101E7C0094BF012000205DF808FB00BF4DF808ED71
:101E8C00FFF7D2FF94BF012000205DF808FB00BFD4
:101E9C004DF808EDFFF7C8FF34BF012000205DF8B6
:041EAC0008FB00BF70
:081EB00000E1F505000000004F
:04000003000000CC2D
:00000001FF
