:1000000000800010FF360000FD360000FD360000C5
:10001000FD360000FD360000FD3600000000000047
:10002000000000000000000000000000FD3600009D
:10003000FD36000000000000FD36000071130000D6
:10004000FD360000FD360000FD360000FD360000E4
:10005000FD360000111B0000FD360000D51A00001F
:10006000FD360000FD360000FD360000FD360000C4
:10007000FD360000FD360000FD360000FD360000B4
:10008000FD360000FD360000FD360000FD360000A4
:10009000FD360000F9010000FD360000FD360000CD
:1000A000FD360000FD360000FD360000FD36000084
:1000B000FD360000FD360000FD360000FD36000074
:0C00C000FD360000FD360000FD3600009B
:1000CC001F2810B5124B4FF0030210D9203802FA3A
:1000DC0000F201FA00F0D3F8AC4124EA0202C3F8B2
:1000EC00AC21D3F8AC211043C3F8AC0110BD02FA1B
:1000FC0000F201FA00F1D3F8A84124EA0202C3F895
:10010C00A821D3F8A8211143C3F8A81110BD00BF32
:10011C0000C00F401F28064B02D8D3F8A81102E0EC
:10012C00D3F8AC11203821FA00F000F0030070472E
:10013C0000C00F40064B10B51C68FFF7EBFF18B161
:10014C00032808BF082000E00420B4FBF0F010BD29
:10015C0008C00720012908D1094B0A4AD3F8C4105A
:10016C0002400A43C3F8C420704741B9044A054B06
:10017C00D2F8C4100B4023EA0003C2F8C430704715
:10018C0000C00F40DEF7EFEF024B0022C3F8C02097
:10019C0030BF704700C00F40044B054904220820B3
:1001AC001A61C1F8C00030BF704700BF00ED00E01D
:1001BC0000C00F40044B0549042209201A61C1F804
:1001CC00C00030BF704700BF00ED00E000C00F4022
:1001DC00044B0549042203201A61C1F8C00030BF4A
:1001EC00704700BF00ED00E000C00F4070470428CE
:1001FC000BD8064B53F8200038B112B103681943E1
:10020C0002E0026822EA0101016070477C410000B3
:10021C00042804D8024B53F8200000B181617047C8
:10022C007C410000042804D8024B53F8200000B194
:10023C00C16170477C410000042805D8034B53F87A
:10024C00200010B140697047002070477C410000CD
:10025C0018B942B9094B1961704702280DD13AB946
:10026C00064801637047012A07D1044A516170475F
:10027C00012A02D1014B59637047FEE7808002408E
:10028C0018B942B90B4840680EE0022811D13AB9AE
:10029C00084A506A08E0012A0BD1064B986803E023
:1002AC00012A06D1034B986A20FA01F101F00100F2
:1002BC007047FEE78080024010B90448C160704767
:1002CC00022802D1014BD9627047FEE780800240C0
:1002DC00FFF78DBFFFF79CBFFFF7A4BFFFF7ACBFC5
:1002EC00FFF7B6BFFFF7CCBFFFF7E6BF04280BD86C
:1002FC00064B53F8200038B112B10369194302E0E0
:10030C00026922EA01010161704700BF7C410000D3
:10031C00042810B519D80D4C04EB80004069A0B12D
:10032C0043B119B1438899B20A4308E0038899B2E2
:10033C000A4309E0D24321B1438899B20A40428072
:10034C0010BD038899B20A40028010BD7C410000A8
:10035C00042810B519D80D4C04EB80004069A0B1ED
:10036C0043B119B1438A99B20A4308E0038A99B29E
:10037C000A4309E0D24321B1438A99B20A4042822E
:10038C0010BD038A99B20A40028210BD7C41000064
:10039C00042808D8044B03EB800043691BB109B156
:1003AC005A8370471A8370477C410000042808D890
:1003BC00044B03EB800043691BB109B1DA8370472E
:1003CC009A8370477C41000004280AD8064B03EB43
:1003DC008000406930B109B1C18A00E0818A88B2DD
:1003EC0070470020704700BF7C410000042810B506
:1003FC0010D8094C04EB8000806A58B123B1032952
:10040C0008D8435C1A4304E0032903D8435C23EA6D
:10041C000202425410BD00BF7C410000042810B5FC
:10042C0012D80A4C04EB8000806A68B12BB1032906
:10043C000AD84118087C024305E0032904D8411866
:10044C000B7C23EA02020A7410BD00BF7C41000041
:10045C00042808D8044B03EB8000836A1BB10329E2
:10046C009CBF59180A7670477C410000042808D8B4
:10047C00044B03EB8000836A1BB103299CBF591802
:10048C000A7770477C410000042809D8054B03EB20
:10049C008000806A28B1032902D84118087D704772
:1004AC00002070477C410000094B98420BD003F5AB
:1004BC008021884209D001F58822904214BF4FF068
:1004CC00FF3002207047002070470120704700BFAA
:1004DC0000C0014003689A0601D520228261816028
:1004EC000821816103681B07FCD5406800F0F80007
:1004FC00704700230449054800225A541A5401330A
:10050C00402BF7D1704700BF8C0200103800001050
:10051C0038B51B4B044698420D4609D18020012169
:10052C00FFF718FE0E200221FFF7CAFD0E201AE07D
:10053C00144884420AD14FF400200121FFF70AFE2F
:10054C0026200221FFF7BCFD26200CE00E498C4230
:10055C0014D14FF080600121FFF7FCFD3420022103
:10056C00FFF7AEFD3420FFF7E5FDB0FBF5F25308C5
:10057C0023612069111A64226161A26138BD00BF38
:10058C0000C0014000C0054000000A40124B13B5EA
:10059C00984216D1002002AC8DF804008DF80300AF
:1005AC0001221B2104F8080D68468DF802208DF8F5
:1005BC00011000F0CDFB1C2368468DF8013000F0D3
:1005CC00C7FB054C05492046FFF7A2FFFFF791FF3B
:1005DC00402020601CBD00BF00C00140400D030046
:1005EC000A4940238842836101D180200AE0084AED
:1005FC00904208BF4FF4002004D0064B984204D11F
:10060C004FF080600021FFF7A5BD704700C001408E
:10061C0000C0054000000A4001294FF040030CBF08
:10062C00036083617047154B99B1984208BF4FF432
:10063C00806204D0124B984204D14FF400621148EE
:10064C00026070471049884208BF4FF4805213D1A2
:10065C00F5E7984208BF4FF480620AD008498842F7
:10066C0008BF4FF4006204D0074A904204D14FF403
:10067C0080520448C0F88020704700BF00C0014081
:10068C0000C0054000E100E000000A4038B5044617
:10069C00FFF70AFF62685B4902F0F80251F830304C
:1006AC00F82A05465A6276D001EBC0004168002951
:1006BC0041D1202A3CD006DC102A0BD0182A12D0AB
:1006CC00082A7ED106E0302A32D0382A76D0282A61
:1006DC0077D108E059682020A06179B1986868B199
:1006EC001B6859001BE0D9689868814206D258688B
:1006FC0020B1425C0131A260D9604CE0414901203B
:10070C0001EBC50148605969002953D018690028CC
:10071C0050D0996829B91B685A0042F00101A160B8
:10072C0039E058680028F6D0202020600C2333E0F4
:10073C0042F4007044E0012962D1402A22D006DC48
:10074C00102A0DD0382A39D0082A3AD108E0502A7C
:10075C000DD0582A22D0482A33D14FF412702FE0F2
:10076C0019692020A06129B3586918B3D3E7196916
:10077C0041B19A695869824204D2A0688854996937
:10078C004A1C9A6158699B69411E8B424FF00402C6
:10079C0034BF2260A2610823A36138BD196941B13D
:1007AC009A695869824204D2A068885499694A1C93
:1007BC009A615A6A42F480625A620FE04FF49C705C
:1007CC0058621A6AD9698A4208D20021D96020205D
:1007DC000C2101322060A1611A6238BD0021204633
:1007EC00FFF721FF2368990601D52020A061054B56
:1007FC001022082103EB850501202260A861A1616C
:10080C0038BD00BF0000001070B50446FFF74CFE69
:10081C00354B064653F83050606800F0F801F82963
:10082C00A9614BD0982949D00BDC802916D003DC68
:10083C00602941D070290FE088293FD0902947D1F9
:10084C000CE0B8292ED004DCA02914D0A8293FD163
:10085C0028E0C02935D0F8293AD12DE06B692A69F6
:10086C00934229D2E868002826D0A168C1546B694C
:10087C005A1C6A6120E020460021FFF7D4FE0820B4
:10088C00A0614FF480332168080705D5204601216B
:10089C00BDE87040FFF7C7BE013BF4D1AA6942F432
:1008AC00806314E0AB686A68934205D2286818B17B
:1008BC00C15C0133A160AB60042222600820A061FE
:1008CC0070BD0420082120604FF49863A161AB61D6
:1008DC0020460021FFF7A7FE03482C2200EB8606DA
:1008EC000121A261716270BD00000010F8B50026F4
:1008FC0005460C46CE608E614E621746002A40F0CB
:10090C00B680226200232021082267682669E360F2
:10091C00A3612960AA6128680207FCD52023AB617A
:10092C00696801F0F803082B01D0102B35D1A268AF
:10093C0012B9A068D8B938E0002FFAD0206843006B
:10094C0003F0FE012846FFF7C5FD182842D1013FF0
:10095C00E168A2689142ECD2284617F8011FFFF714
:10096C00B9FD282836D1E068411CE160F0E76368E6
:10097C00DBB16169C9B12269BAB1202008232860B2
:10098C00AB6129680B07FCD52022AA61686800F0CE
:10099C00F803082B09D0102B07D0226AE169501CF0
:1009AC0088422062AED9636256E0616929B92B682E
:1009BC0098064BD52021A96148E02269002AF6D07F
:1009CC002068430043F001012846C9B2FFF782FDBD
:1009DC00402821D0226AE169531C8B42236291D9B1
:1009EC0040F40070606237E0431E9A424FF00801F9
:1009FC004FF0040215D22A60A9612B681907FCD5A7
:100A0C00A9686A68C9B202F0F800502815D106F836
:100A1C00011BA069431CA361A26960698242E3D3F4
:100A2C00C5E7AA61A96128680207FCD5AB686A68AA
:100A3C00D9B202F0F8005828E8E7216AE3694A1CA9
:100A4C009A4222627FF65EAF606205E010220820B7
:100A5C002A60A8610120F8BD2B689B0601D52022D5
:100A6C00AA61102008212860A9610020F8BD012A84
:100A7C00FBD1FFF719FD084BC0B203EBC00143F8E3
:100A8C003040082220204E60AA6139462860284652
:100A9C00FFF7C9FDDEE700BF00000010F8B5D1F884
:100AAC000CC00D460F6800210446A9606961A9615C
:100ABC001646002A65D12822042020603146A26106
:100ACC003246206800074CD5606800F0F803982B7C
:100ADC0036D00CD8802B19D004D8602B2ED0702B8C
:100AEC0038D12BE0882B2BD0902B33D10EE0B82BA8
:100AFC0019D004D8A02B28D0A82B2BD113E0C02BB5
:100B0C004FF0040020D0F82B24D118E068692A6932
:100B1C00904213D2E86888B1A2680CF8012B68697E
:100B2C00421C6A610AE0AA686868824206D2286898
:100B3C0020B117F8010B0132A060AA6004202060DC
:100B4C000822A2610022BCE720600822A2610021D9
:100B5C000122B6E708210420A161A061AB6100204D
:100B6C00F8BD002AADD04A1CB1F5803F02D8114621
:100B7C000122A6E7042143F48063A161AB6101204B
:100B8C00F8BD012AEBD1FFF78FFC074B282143F866
:100B9C003050042203EBC000466022602046A16165
:100BAC003146FFF740FDEAE70000001010B58B78E6
:100BBC004A785C1E63425C4144EA4202D3B20A7832
:100BCC00032A1AD8DFE802F002080E14C360C978B1
:100BDC0001F0FE03036310BD0362CB7803F0FE0249
:100BEC00426310BD4362CA7802F0FE01816310BDFE
:100BFC008362C97801F0FE03C36310BDC369012A87
:100C0C0016BF03F00703194323EA0101C1617047C2
:100C1C000129C36906D143F001030421C3612822D1
:100C2C00016003E003F00601C1612C228261024ADB
:100C3C0000201063704700BF00000010C06AC0B2F3
:100C4C007047082310B58361054BC06A1C6B0855AF
:100C5C00601C9042186334BF0020012010BD00BFFF
:100C6C000000001008B5FFF71FFC034B002203EB3C
:100C7C00800188698A6108BD0000001008B5FFF783
:100C8C0013FC034B002203EB8001486A4A6208BD47
:100C9C00000000100B4B4FF0FF310122C3F8801005
:100CAC00C3F88420C3F88011C3F88421002303F116
:100CBC0060400133002100F56142202B82F80013C3
:100CCC00F5D1704700E100E00D4B4FF020620D496B
:100CDC005A6000229A60D9601A615A6102F1604030
:100CEC00013200F56D410020202A054B0876F5D124
:100CFC004FF0FF3158629962D9621963704700BF97
:100D0C0000ED00E00000FA0520F04040024B20F01E
:100D1C007F019960704700BF00ED00E0012804D10D
:100D2C00054B996A41F0080004E020B9024B9A6A1D
:100D3C0022F008009862704700C00240034B002963
:100D4C000CBF0A210521D967704700BF00C00240C3
:100D5C0070B543780278847851000F2B01D9103B81
:100D6C0001318D005B0005F18046032505FA03F582
:100D7C0004FA03F406F53032116821EA050141EA60
:100D8C000406166042780378C5785B000F2A01D9F7
:100D9C00103A01335200032606FA02F605FA02F263
:100DAC000F4951F8234024EA0604224341F823203A
:100DBC000278417800790B4B012807D100FA01F138
:100DCC0053F822400C4343F8224070BD012000FA36
:100DDC0001F153F8220020EA010043F8220070BD13
:100DEC0040C0024068C0024008B50E4B984209D181
:100DFC0000204FF480310122FFF7F9F900204FF465
:100E0C00803109E0084988420AD1002040210122A2
:100E1C00FFF7EDF900204021BDE80840FFF7F8B9D5
:100E2C0008BD00BF00800840000003400C4B9842F6
:100E3C0008D119B100204FF4803109E008464FF475
:100E4C00803109E0074A904208D119B100204021B5
:100E5C00FFF7DEB908464021FFF7E4B9704700BF41
:100E6C00008008400000034000230449044800228D
:100E7C005A541A540133402BF7D17047CC0200104E
:100E8C000C030010244B70B5984204460D4608BF65
:100E9C004FF4001004D0214884423BD14FF48060C1
:100EAC000121FFF757F96968AA682E692B680A4374
:100EBC00324342EA0300E968174B82B201F00F0695
:100ECC002A209C42226066606E6903D013488442DB
:100EDC0020D11420FFF72EF94FF0FF31002202230E
:100EEC00B1420DD9551C03FB05F1B0FBF1F1B14238
:100EFC0006D9FF2D02D902330022F1E72A46EFE78B
:100F0C0020681206C1B221602068DBB240EA1241AF
:100F1C002160236170BD00BF0080084000000340C9
:100F2C00074B984208BF4FF4001004D00549884283
:100F3C0004D14FF480600021FFF70CB9704700BF5B
:100F4C000080084000000340006800F00F0070476C
:100F5C00044A002307214360836042610160C3603F
:100F6C0003617047C0C62D0070B5394B88B09842EC
:100F7C0004462BD102250F208DF802508DF801006C
:100F8C00002568468DF804508DF803508DF80050FC
:100F9C00FFF7DEFE112168468DF80110FFF7D8FE31
:100FAC00122268468DF80120FFF7D2FE1023684606
:100FBC008DF801308DF80250FFF7CAFE02A8FFF73A
:100FCC00C7FF244807210790029132E0224884424F
:100FDC002FD102210025072668468DF802108DF8C6
:100FEC0004508DF803508DF800508DF80160FFF718
:100FFC00AFFE082268468DF80120FFF7A9FE0923F1
:10100C0068468DF80130FFF7A3FE06208DF801002D
:10101C0068468DF80250FFF79BFE02A8FFF798FF79
:10102C000E4B802140220391049207930296059562
:10103C000695204602A9FFF725FF2046FFF7D4FEB0
:10104C00626842F002036360FFF70EFF08B070BDE8
:10105C0000800840C0C62D0000000340002D310167
:10106C00436801290CBF43F0020303F00D034360F6
:10107C007047436801290CBF43F0010303F00E03D2
:10108C0043607047436801290CBF03F0070343F02A
:10109C0008034360704781607047806880B2704776
:1010AC0000232DE9F041CB604B604B61C46814F018
:1010BC00040401D08368F9E703230362036803F097
:1010CC000F03082B04D8002A57D18D680E6805E051
:1010DC00002A51D18F68D1F800C001224B68D1F899
:1010EC001080434536D0C46814F0020F14D0434529
:1010FC0012D00C682CB90AB9FF2405E04FF6FF7426
:10110C0007E022B916F8014B8460013303E03CF888
:10111C00024B846002334B60836913F0010F50D192
:10112C00C4686407DAD5CC680B699C42D6D08B684E
:10113C00D0F8088033B112B905F8018B03E027F819
:10114C00028B04E01AB9CB685C1CCC60E8E7023473
:10115C00CC60E5E7CC689C42C5D10A684FF480703E
:10116C00486112B12046BDE8F0818968002914BF9E
:10117C0020460020BDE8F0810124012A10D023E094
:10118C00CB680A6993420BD08A688568002A2BD0F9
:10119C0044BBD554CA68531CCB60C2685207EFD409
:1011AC00C268930724D54B680A69934220D00A6819
:1011BC008AB96CB9FF22826001334B608369DA070C
:1011CC00EBD543F4007048614FF0FF30BDE8F0817F
:1011DC004FF6FF7203E00CB9D25CECE7D25A826096
:1011EC000233EAE7D55201E0002CD3D00233D3E727
:1011FC00CB680A69934202D14A689A4202D00F2105
:10120C00416102E04FF4807048610020BDE8F0813C
:10121C00C36819420CBF0020012070474369012AA2
:10122C0016BF03F00F03194323EA01014161704714
:10123C00836919420CBF00200120704780697047F8
:10124C00C36919420CBF002001207047016270472E
:10125C00436A012A16BF03F00303194323EA010171
:10126C0041627047024B18601A68002AFCD1704723
:10127C005C0300100F4B70B51C684FF47A71B4FB13
:10128C00F1F4054602F020FB06464FF08070B0FBEF
:10129C00F4F002F019FB0146304602F0D9FB00B124
:1012AC00FEE7054B6C431A68013C42F004011960DF
:1012BC005C6070BD08C0072010E000E070B54FF412
:1012CC007A74B0FBF4F408460D4602F0FDFA0646BB
:1012DC004FF08070B0FBF4F002F0F6FA01463046A5
:1012EC0002F0B6FB00B1FEE7044B6C431A68013CFC
:1012FC0022F0040119605C6070BD00BF10E000E0DA
:10130C00044B01281A680CBF42F0010222F00102C2
:10131C001A60704710E000E0044B01281A680CBFFB
:10132C0042F0020222F002021A60704710E000E064
:10133C0008B50120FFF79EFF0120FFF7EDFF01200C
:10134C00BDE80840FFF7DCBF014B9868704700BF51
:10135C0010E000E0024B1A6822F4803018607047ED
:10136C0010E000E00A4B1A680AB1511E06E0094869
:10137C00416981F000724261074801681960074BAE
:10138C001A6812B11868411E1960FFF7E3BF00BF5D
:10139C005803001060C00920600300105C030010AB
:1013AC002DE9F04FA34B044608209C428BB08B4692
:1013BC0016D0A1498C4208D101211020FEF7CAFE9B
:1013CC0007210022217222720EE09C4A944208BF2F
:1013DC004FF0807004D09A48844225D14FF00070B1
:1013EC000121FEF7B7FE1FE09348057DEA0701D502
:1013FC000378F9E7802680F830608F4B197D01F077
:10140C002002D0B20028F8D0002583F830505D605F
:10141C001D731D621D7483F84C5083F8545083F86F
:10142C0050501A7E1B7D1DE0072500262572267262
:10143C00237DDB0701D52378FAE7802184F830106F
:10144C00227D02F02000C5B2002DF9D07C4B002685
:10145C0084F830609C42666026732662227D08BF49
:10146C0084F82460734E0620B442DBF800500BD095
:10147C00714B08209C4207D0704930208C4203D01D
:10148C006F4A944203D13220FEF754FE07463E07C2
:10149C00380904960590DDE90423CDE908234FF0C3
:1014AC00FF33079300220023CDE902230026069583
:1014BC004FF00108B1464FF0000CE246069A0023AB
:1014CC006244DDE90801CDF804C002F0CBFAB0F1BA
:1014DC00004FDDF804C001D9404201314B1EB3F579
:1014EC00803F09D2079A904206D2029100210391C3
:1014FC0000B307904646D1460AF1010AC245AC44F6
:10150C00DCD3079880B1069BDDE904015A1908F178
:10151C0001080692DDE90823121843EB0103B8F128
:10152C00100FCDE90823C6D1DDE9020150EA010311
:10153C004AD001E0D14646463809029F09EB060124
:10154C00A1FB0723039F704301FB0733002102F02B
:10155C0089FA85428CBFC0EB0500C5EB0000642303
:10156C005843B0FBF5F5022D2ED8207B324A40F0C3
:10157C0080019442217313D1029B9DF80800C3F3A0
:10158C000722C1B222712170237B3601F0B209F01F
:10159C000F0903F07F0240EA09062273A66216E0E7
:1015AC00029F09F00F09C7F307239DF808702371F8
:1015BC00FAB22270207B49EA061600F07F01F6B2DF
:1015CC00217384F8286005E01B498C4202D11A4A29
:1015DC00137B00E0237B9BF8050003F0C00301287C
:1015EC0005D009D3022805D143F0020304E043F0EF
:1015FC00010301E043F003039BF8041079B10329C4
:10160C0008D0042909D0022914BF43F0080343F081
:10161C00180304E043F0280301E043F038039BF87F
:10162C000620012A08BF43F00403D8B220730BB084
:10163C00BDE8F08F00C00040000001400080094070
:10164C0000C0094000224FF416530321036041717E
:10165C000271827170470170704703494FF00002AC
:10166C000A800078704700BF78000010017B41F0C1
:10167C0040020273704710B5062914D8DFE801F058
:10168C00120406080A0C0F0002230CE004230AE0E3
:10169C00082308E0802306E04FF4807303E04FF446
:1016AC00007300E00123012A0B4A03D14468234351
:1016BC00436010BD90426FEA030305D1426840F2CB
:1016CC008F3111400B4004E0416840F207340C406C
:1016DC002340436010BD00BF00000140007D7047F7
:1016EC00836840F2CF3018407047007D80F0400195
:1016FC00C1F380107047CB78022B9CBF0B4AD35C94
:10170C004A7888BFC123012A0A78897808BF43F038
:10171C000403012A08BF43F00203012908BF43F068
:10172C00080323F03003D9B201727047B8410000AE
:10173C0070B5474B86B0984204460E4612D102252E
:10174C0000208DF8095006AD05F8100D01238DF819
:10175C000C008DF80B0028468DF80A30FFF7F8FACC
:10176C00032029E03B48844211D1022106AD05F843
:10177C00101D002228468DF80A108DF80C208DF8CB
:10178C000B208DF80920FFF7E3FA012014E0324911
:10179C008C4216D10A2500238DF8095006AD05F8A8
:1017AC00103D012228468DF80A208DF80C308DF85A
:1017BC000B30FFF7CDFA0B208DF809002846FFF708
:1017CC00C7FA03218DF8151006A9002541F8086DFC
:1017DC0020468DF814508DF81650FFF7E1FD0122CC
:1017EC00204601A98DF804208DF805208DF80650AF
:1017FC008DF80750FFF77FFF94F83030002143F04D
:10180C008000012284F830002046FFF734FF0221CB
:10181C0001222046FFF72FFF0D48104B104A0021E4
:10182C00844211709960D9601960596005D10D4BD3
:10183C00482183F80513202007E007498C4205D185
:10184C00084B102283F807238020186006B070BD67
:10185C0000C0004000000140008009407C000010E6
:10186C004C03001000E100E0002301218370C370E1
:10187C00017041707047012A4FF0000320D10B78A2
:10188C004A78012B0CBF02230023012A01D143F01B
:10189C000403027B0B49884242F080014FF00002A6
:1018AC00017302700271017B01F07F0202734FF031
:1018BC00100102D080F8281000E0816243F001038F
:1018CC000362704700000140026A114301627047D5
:1018DC00012906D190F8302042F0800380F8303096
:1018EC0070474FF0000190F8302080F830107047AE
:1018FC000021FFF7EDBF012904D190F8242042F01C
:10190C00020104E029B990F8243003F03D0180F87D
:10191C002410704790F8243001290CBF43F00103C8
:10192C0003F03E0380F82430704790F8243001F027
:10193C00070103F0C70242EAC10303F03F0141F083
:10194C00040280F82420704701299DBF064B5918CA
:10195C00CB780023012A027C16BF22F00C02134321
:10196C0022EA030303747047B8410000012905D033
:10197C0006D3022914BF0021802102E0402100E09F
:10198C001021037C012A16BF23F00C03194323EA10
:10199C00010101747047007E7047CB78012B0DD18B
:1019AC004A79012A0CBF302310230A79012ACA79FB
:1019BC0008BF43F0080380F8542000E000230A78A5
:1019CC00012A8A7808BF43F00103012A04D18A79DD
:1019DC0043F0040380F85020497809B943F002031E
:1019EC0003F03F0280F84C20017B41F03803037375
:1019FC00704790F84C3001290CBF03F0FD0343F005
:101A0C00020380F84C30704710B504462046FFF7AF
:101A1C0024FE024680B1094BD868996801314140D7
:101A2C0011F0FF0FF2D09868191881F810219A68FC
:101A3C00501CC1B29960E9E710BD00BF7C000010DA
:101A4C0070B5012100220446FFF715FE2046FFF772
:101A5C004CFE0128FAD01A4B1A68596881EA020028
:101A6C0010F0FF0F0BD05A684FF0FF33257D05F0B7
:101A7C002006F1B211B913B1013BF7E7B3B9104825
:101A8C00056846686E4016F0FF060E4D06D12046DE
:101A9C0001213246FFF7EFFD2E7070BD012120466B
:101AAC000A462970BDE87040FFF7E5BD044B9A1853
:101ABC00107C20705D686E1CF1B25960CBE700BFE2
:101ACC007C0000104C03001010B50D4B9C6804F00A
:101ADC000E04062C04D1187D10F09E0F0ED0FEE7DC
:101AEC00042C01D00C2C02D10548FFF78DFF022CE1
:101AFC0004D10348BDE81040FFF7A2BF10BD00BFE2
:101B0C000080094010B50D4B9C6804F00E04062CA7
:101B1C0004D1187D10F09E0F0ED0FEE7042C01D0DE
:101B2C000C2C02D10548FFF76FFF022C04D103489F
:101B3C00BDE81040FFF784BF10BD00BF00C00040DF
:101B4C00F8B50E461746012100220546FFF793FD16
:101B5C000024BC4206D1104B1978A9B92846FFF7CE
:101B6C006FFF16E00D4B59681A68501C484010F076
:101B7C00FF0FF0D01A68305D991808741A68013498
:101B8C00501CC1B21960E4E7012128460A46FFF750
:101B9C0072FD2046F8BD00BF4C0300107C00001005
:101BAC000EB42DE9F043864B9CB0239C054603AA4A
:101BBC0003F1100718685968164603C60833BB4270
:101BCC003246F7D1187800213070282208A802F08C
:101BDC0035FA0A214FF47A72099164230B927949F0
:101BEC00794A0A9342F21070784B01260C900D91B1
:101BFC000F920021282212A80E93089602F01EFACA
:101C0C0010204FF480714FF480534FF480321390B6
:101C1C001491159316924FF480104FF080714FF081
:101C2C00805324AA12961790189119930292207837
:101C3C0025288DF802000CD0002800F0BB80671C12
:101C4C0028460DF1020101220223FFF779FF3C46E1
:101C5C00EDE76078A71C41B264298DF8020054D0DE
:101C6C000CDC622915D06329EAD1029C1CA92268DC
:101C7C00231D029301F86E2D2846E4E775292CD01C
:101C8C00782964D07329DBD102990A1D02920C6861
:101C9C0017E0029803AA0478011D63B20291C3F302
:101CAC000B1151180223284601228DF80240FFF730
:101CBC0047FF9DF8020003AB00F00F0419192846EA
:101CCC00C1E7214691F9000001340028BFD0284615
:101CDC0001220223FFF734FFF3E7029B0626191DAE
:101CEC00D3F8008002914FF48014B8FBF4F903AAE6
:101CFC0002EB0901022301222846FFF721FF04FB16
:101D0C0019882409013EF0D1A1E7E078A778313891
:101D1C00C6B2029873B28DF80260061D0296066870
:101D2C001CA98DF8037001EB8302271D002E52F8BD
:101D3C00504C09DA2D231CA941F86C3D2846012290
:101D4C0002237642FFF7FCFE4FF00A0820E0E6780B
:101D5C00A778313EF3B2029859B21CAA061D8DF831
:101D6C000370271D02EB810402968DF8023054F8A3
:101D7C00284C06684FF010080AE0B4420AD92846ED
:101D8C000DF1030101220223B4FBF8F4FFF7D8FE96
:101D9C00012CF2D8B6FBF4F903A9284649440122D8
:101DAC000223FFF7CDFE04FB1966B4FBF8F4002CFC
:101DBC00F0D14CE71CB0BDE8F04303B0704700BF56
:101DCC00BD410000A08601008096980040420F00A3
:101DDC0037B5057B02AB03F8011D05F0EF0202736A
:101DEC001946012202230446FFF7AAFE207D00F0CB
:101DFC004001CBB2002BF9D025733EBD38B504465B
:101E0C0073B1057B05F0EF0303730223FFF798FE14
:101E1C00217D01F04002D3B2002BF9D0257338BDDF
:101E2C000223FFF78DFE237D03F04001CAB2002A86
:101E3C00F9D038BD0023FFF7E1BFF8B50E460021FD
:101E4C0017460A460546FFF716FC0024BC4212D082
:101E5C000C4B9A68D96881EA020010F0FF0F0AD087
:101E6C00DA68991891F810013055DA680134511C70
:101E7C00C8B2D860EAE7284600210122FFF7FBFB35
:101E8C002046F8BD7C00001073B505461A4B9D42E8
:101E9C0021D1284601A901220223FFF7CEFF0024FD
:101EAC000646B442F2D001A9635C0D2B21D07F2BE6
:101EBC001FD0082B1DD01B2B03D1104A01201080E2
:101ECC0017E01F2B15D809190B4801220223FFF725
:101EDC0037FE0134E5E70A488542D7D1284601A9E7
:101EEC0001220223FFF7A9FF0028CFD09DF80400A0
:101EFC0000E018467CBD00BF00C000407800001018
:101F0C00008009402DE9F347002506468846914696
:101F1C002C463046FFF7B8FFC2B253B21B2B8DF8DC
:101F2C00062001D1154643E00D2B03D1002008F803
:101F3C0004003DE07F2B01D0082B23D1002CE8D0EE
:101F4C004FF0080A0DEB0A0707F801AD39460122DC
:101F5C0002233046FFF7F4FD20218DF807100122F3
:101F6C00394602233046FFF7EBFD012202233046AF
:101F7C0039468DF807A0FFF7E3FD621E6B1ED4B245
:101F8C00DDB2C6E74C4509D208F80420013501340E
:101F9C00E4B2EDB230460DF1060104E0072002A9CF
:101FAC0001F8010D304601220223FFF7C9FDB0E70D
:101FBC002846BDE8FC870149FFF7F2BDCE41000081
:101FCC000149FFF7EDBD00BFD241000010B504463A
:101FDC00FFF7F6FF2046BDE81040FFF7ECBF38B521
:101FEC00084C054621460822FFF7DAFD214620223F
:101FFC002846FFF7D5FD284621460822BDE8384083
:10200C00FFF7CEBDD741000038B5084D0446082275
:10201C002946FFF7C5FD20460549FFF7C1FD2046BF
:10202C0029460822BDE83840FFF7BABDD741000069
:10203C00DA41000038B50F4D044608222946FFF757
:10204C00AFFD20460C49FFF7ABFD29460822204680
:10205C00FFF7A6FD082229462046FFF7A1FD2046E2
:10206C000649FFF79DFD204629460822BDE8384069
:10207C00FFF796BDD7410000DC410000DA410000BB
:10208C0038B50F4D044608222946FFF789FD204636
:10209C000C49FFF785FD294608222046FFF780FDF5
:1020AC00082229462046FFF77BFD20460649FFF70C
:1020BC0077FD204629460822BDE83840FFF770BD61
:1020CC00D7410000DE410000DA41000070B50F4D31
:1020DC000F4E044608222946FFF762FD3146204682
:1020EC00FFF75EFD082229462046FFF759FD3146D1
:1020FC002046FFF755FD294620460822FFF750FDE4
:10210C0004492046BDE87040FFF74ABDD7410000A6
:10211C00DA410000E041000038B5044610B1012856
:10212C002ED108E021F00300FE282BD94FF080437C
:10213C005860012038BD144B14481A68890895085A
:10214C00B5FBF0F54D43FE2D02D90020014610E001
:10215C005308B3FBF0F54D43FE2D02D900200221AC
:10216C0007E0B2FBF0F202FB01F50020FE2D06D9D0
:10217C002146FDF7A5FF4FF080414D6002E038BDD0
:10218C00002038BD204638BD08C0072040420F0053
:10219C0038B5054600200C460146FDF791FF4FF07F
:1021AC0080431A69012C22F003001861196945EA71
:1021BC0001051D6103D11A7842F00200187038BD78
:1021CC004FF080431878C0F3800070474FF0804385
:1021DC001A7802F0FB001870704772B64FF080430B
:1021EC00AA2255201A72187262B6704708B54FF0C1
:1021FC0080430146186900F00300FFF78DFFBDE82E
:10220C000840FFF7EABF10B54FF080440146206943
:10221C0000F00300FFF780FF237843F001012170E9
:10222C00BDE81040FFF7D9BF4FF08043D868704726
:10223C0000B58FB08DF8070048230DF10700012180
:10224C000022039304900591032303A905480792E8
:10225C0008920A93FEF74AFB012814BFFF200020C6
:10226C000FB000BD00C0014000B50C4B8DB00A0A88
:10227C0018709970482003215A7001900022039124
:10228C000891074801A9029305920692FEF72EFBCE
:10229C00012814BFFF2000200DB000BD8C020010DF
:1022AC0000C0014008B58620FFF7C2FF70204FF434
:1022BC000061FFF7D9FF60204FF40841FFF7D4FF0E
:1022CC008420BDE80840FFF7B3BF30B58FB08DF860
:1022DC00070001210DF107000D4C02224823049048
:1022EC00059108920325002203A90A4807940A9530
:1022FC00039325786478FEF7F9FA012806BF05F0F8
:10230C000F0044EA00204FF6FF700FB030BD00BF45
:10231C003800001000C0014010B50446FFF7C2FFA2
:10232C00E00040F00101CCB22046FFF7CEFF204682
:10233C00FFF7CBFF0205100D10BD10B50446FFF7DB
:10234C00B1FF0120FFF7C1FF20800120FFF7BDFF87
:10235C0020800920FFF7B9FF60800920FFF7B5FF47
:10236C0060801120FFF7B1FFA0801120FFF7ADFFB7
:10237C00A0801920FFF7A9FFE0801920FFF7A5FF27
:10238C002388628823F470412180A18822F4704351
:10239C0020F4704021F470426380A280E08010BD74
:1023AC0013B50E4C6846FFF7C8FFBDF80020204659
:1023BC000B49FFF7F5FBBDF8022020460949FFF752
:1023CC00EFFBBDF8042020460749FFF7E9FB204648
:1023DC000649BDF80620FFF7E3FB1CBD00C000401A
:1023EC00424A07005C4A0700764A0700904A0700F9
:1023FC0007B56846FFF7A1FFBDF800000B23BDF839
:10240C000210B0FBF3F20D20B1FBF0F3183A243BB1
:10241C0090B299B2002200F0C5F90EBD2DE9F74338
:10242C002C4B0020009301464FF4A072F02300F0D7
:10243C0033FF0024274626462546A1460020FFF7F9
:10244C006BFF814580460BD9AFB1002C18BF00251E
:10245C00691C8DB20A2D17D00024C1460127EDE767
:10246C0009D247B1002C08BF00250135ADB20124BB
:10247C000A2DF2D102E00A2DEFD12CB10136F6B2C1
:10248C0070B202281ADC05E0721ED6B277B20024B4
:10249C007B1C07D073B2012B02D0022B0FD101E0B1
:1024AC000D4D0DE00D484FF4A07200900020014638
:1024BC00F02300F0F1FE02260A25CEE70026054D9A
:1024CC000020009501464FF4A072F02300F0E4FECA
:1024DC00F2E700BFE2410000029A020022F204007F
:1024EC00002108B50448FEF7A1FC02200121BDE83B
:1024FC000840FDF78DBE00BF0000034001480121DC
:10250C00FEF794BC000003407FB5074B020A5870DD
:10251C0002201A700490002269460448009302922B
:10252C00FEF7BEFD07B000BDCC020010000003405A
:10253C0020B102204FF48071FDF76ABE02204FF4E7
:10254C008071FDF76FBE08B520210020FDF760FEFD
:10255C000220FEF787FE20210020FDF763FE0420F9
:10256C00FEF780FE00202021BDE80840FDF750BE9C
:10257C00014B1880704700BF36000010014B1880CB
:10258C00704700BF04C0072010B58AB00AAC04F82D
:10259C00210D01210220FDF745FE11480021FEF717
:1025AC0045FC0494002201240D4804A906920894C9
:1025BC00FEF776FDC0B280B121460948FEF736FC25
:1025CC0040F29D310391039B13B10398411EF9E72F
:1025DC0002200121FDF71CFE01200AB010BD00BF36
:1025EC000000034010B50F4C86B0030A6070012147
:1025FC0002202370FDF70CFE0B480021FEF716FCA1
:10260C000220002204906946074800940292FEF7CB
:10261C0047FDC0B220B104480121FEF707FC0120A0
:10262C0006B010BDCC020010000003402DE9F041B3
:10263C000646452015461F460C46BDF81880FFF788
:10264C00A3FF3046FFF7CEFF4620FFF79DFF701E1D
:10265C00291888B2FFF7C6FF4420FFF795FF2046E4
:10266C00FFF7C0FF4420FFF78FFF04F1170213029E
:10267C0003F47F40FFF7B6FF4E20FFF785FF30468F
:10268C00FFF7B0FF4F20FFF77FFF2046FFF7AAFFB1
:10269C002220FFF779FFFFF723FF05FB08F64FEA2F
:1026AC00A6280026B74210D00024A5420BDD1FFA45
:1026BC0088F08442D4BF074807480134018888B2A7
:1026CC00FFF722FFF1E70136ECE7BDE8F041FFF739
:1026DC0015BF00BF04C0072036000010F8B5A0F1EC
:1026EC001005ADB2064645200C461746FFF74CFFC9
:1026FC002846FFF777FF4620FFF746FF701E80B293
:10270C00FFF770FF4420FFF73FFF2046FFF76AFFFB
:10271C004420FFF739FF04F117010A0202F47F404D
:10272C00FFF760FF4E20FFF72FFF2846FFF75AFFF9
:10273C004F20FFF729FF2046FFF754FF2220FFF719
:10274C0023FFFFF7CDFE002500247B5B43FA04F347
:10275C00D80754BF074808480134018888B2FFF7EE
:10276C00D3FE102CF1D10235302DEDD1BDE8F8405F
:10277C00FFF7C4BE04C0072036000010203A18230F
:10278C00D2B2584310B553430901054A8CB202EB3F
:10279C00430281B22046BDE81040FFF79FBF00BF47
:1027AC00AA4A070070B504464E200D461646FFF7A0
:1027BC00EBFE2046FFF716FF4F20FFF7E5FE2846FD
:1027CC00FFF710FF2220FFF7DFFE3046BDE8704018
:1027DC00FFF708BF2DE9F04F141A5E1A24B236B277
:1027EC00002CB8BF6442002EB8BF76424FF6FF757E
:1027FC0024B236B285B09042CCBF2F460127994205
:10280C00CCBFA8464FF00108B442BDF8389029DB84
:10281C004FEA460B361B7300C4EB0B0503938A4639
:10282C000026A64247DC1FFA8AF31FFA80FE1946DF
:10283C0070464A460193CDF808E0FFF7B3FFDDF888
:10284C0008C0002D0CEB0701019B02DA5D4488B235
:10285C0006E0039803EB080A2D181FFA8AFA88B2CF
:10286C000136DEE7A21B4FEA440A5300C6EB0A0509
:10287C00039383460024B4421DDC1FFA81FC1FFA2B
:10288C008BF3614618464A46CDF808C00193FFF712
:10289C0089FFDDF808C0002D0CEB0801019801DA66
:1028AC00554405E0039A00EB070BAD181FFA8BFBA0
:1028BC0089B20134DFE705B0BDE8F08F2DE9F04FA8
:1028CC0091B00646BDF86840BDF86C000D46174641
:1028DC000E940F9023BB0E9CB6F90000B6F90210B3
:1028EC00B5F90020B5F902300094FFF773FFB7F982
:1028FC000020B7F90230B6F90000B6F902100094C6
:10290C00FFF768FFB7F90020B7F90230B5F90000FE
:10291C00B5F902101A9411B0BDE8F04FFFF75ABF89
:10292C0073884A881CB211B28C4214DD82EA03000F
:10293C0070806B882C885840688072883188504031
:10294C00708084EA010083B233802A8853402B8044
:10295C0034886340338073887A8818B211B2884205
:10296C0014DD82EA030474807B8838885C407C80A8
:10297C00728831885440748080EA0104A3B2338099
:10298C003A8853403B803088434033806C887B8846
:10299C0022B219B28A4214DD83EA040068807C8872
:1029AC003A88604078806B8829885840688082EA31
:1029BC00010084B22C803B885C403C802A885440C7
:1029CC002C803188738828881FFA83F88CB2CDF854
:1029DC001880021B90B2B5F802A0DDF818B01FFAEF
:1029EC0080F919F4004FCBEB0A0218BFC0F10009B3
:1029FC0090B23A7818BF4FF6FF78C1EB02014AB299
:102A0C0011B20CBF4FF001081FFA89F90029CDF85B
:102A1C00208004901FFA82FC05DA52421FFA82FCD5
:102A2C004FF6FF7E01E04FF0010EB878DDF810B0E4
:102A3C00C11A49B2CDF828E00FFA8BF20FFA89FED1
:102A4C001FFA81F872450846CDF834800FDDDDF8A9
:102A5C00108089EA080989EA08021FFA82FB8BEACE
:102A6C00090ECDF810B01FFA8EF9012200E00022F9
:102A7C0000B20FFA8CF8404507920BDD8CEA01008E
:102A8C0081B281EA0C0C8CEA010081B201200D911B
:102A9C00099001E0002109914CF34E0189B29A454D
:102AAC00059100F0958049F34E031FFA83FAA04676
:102ABC004FF0000B0FFA89F39B4580F28980A045FB
:102ACC004FF0000E39BF2246414642462146CDF812
:102ADC002CE09B4508DA04980BF1010B82445FFA59
:102AEC008BFB1FFA8AFA0FE000230C932FE0079858
:102AFC00C9EB0A0A1FFA8AFA0028F5D0DDF820E0A3
:102B0C001FFA8EFECDF82CE09A45F0DA07980028D3
:102B1C00EAD1DDF820E0F0441FFA88F8D9E70598EF
:102B2C00CCEB000398B2099B0590C3B1DDF828E00B
:102B3C001FFA8EFECDF830E005980FFA8CF3984210
:102B4C00EDDA099B5BB9DDF828E07444A4B2059872
:102B5C00DDF834E000EB0E0398B20590ECE7069B31
:102B6C00884538BF4146904528BF424688B292B24C
:102B7C0019B20F9BA04228BF2046A24238BF224662
:102B8C00009300B20B4612B2CDF80CC0FFF722FE38
:102B9C000799DDF80CC019B9089880441FFA88F819
:102BAC000B9A099908EB02031FFA83F819B9DDF89F
:102BBC0028E07444A4B206990C982318481C9CB2C3
:102BCC0083B20693B5F90200069981427FF472AF85
:102BDC003A78B5F800A0CAEB020358B202B2002A48
:102BEC001FFA80F907DAC0F100094FF6FF701FFADF
:102BFC0089F9079001E001230793B978AA781FFAA5
:102C0C008AF88B1A58B202B20FFA89F11FFA80FBBC
:102C1C008A42CDF830B00BDD89EA000398B280EA25
:102C2C00090989EA000398B201230C90049301E08E
:102C3C0000210491C9F3470B4FF0000A0FFA89F3F6
:102C4C009A453FF748AEA04539BF22464146424619
:102C5C0021469A4512DADDF830E00BEB0E001FFA34
:102C6C0080FB9B4508DB049BC9EB0B001FFA80FB28
:102C7C003BB1079B9BB202E0049860B10023089320
:102C8C0001E004980890B7F900004FF0000E029094
:102C9C00CDF82CE01EE007980AF1010A80441FFAD7
:102CAC0088F85FFA8AFAD4E7DDF814E0CCEB0E036F
:102CBC0098B2099B0590CBB10A9B98B20B90DDF8AA
:102CCC0014E00FFA8CF08645EEDA099B73B90A987A
:102CDC002418A4B2DDF808E0744507D0DDF814E040
:102CEC000D9B0EEB030083B20593E8E7069B88452A
:102CFC0038BF4146904528BF424688B292B219B2BD
:102D0C000F9BA04228BF2046A24238BF2246009308
:102D1C0000B20B4612B2CDF80CC0FFF75BFD049964
:102D2C00DDF80CC019B9079880441FFA88F8089A86
:102D3C00099908EB02031FFA83F819B9DDF828E0AA
:102D4C007444A4B206990B982318481C9CB283B205
:102D5C000693B7F90200069981423FF7BCAD0AF120
:102D6C00010A5FFA8AFA69E72DE9F743BDF8288072
:102D7C0005460C4691461F4696B2002E58D06988DF
:102D8C0033B272184B4511B2B5F90000B4F90020FA
:102D9C0026DA0B46CDF80080FFF71CFD6188B5F9EB
:102DAC0000008A1B11B20B46B4F90020CDF800804C
:102DBC00FFF710FD2888B5F90210331818B2024637
:102DCC00B4F90230CDF80080FFF704FD2188B4F986
:102DDC0002308A1B10B2B5F90210CDF8008021E048
:102DEC000B460097FFF7F6FC6088B4F90020831BB4
:102DFC0019B20B46B5F900000097FFF7EBFC2988D8
:102E0C00B4F90230721810B2B5F9021002460097EC
:102E1C00FFF7E0FC2088B5F90210831B18B2B4F957
:102E2C00023000970246013EFFF7D4FCB6B2A4E78D
:102E3C00B5F90210B5F90000B4F900200B46009763
:102E4C00FFF7C8FCB4F90210B5F90000B4F9002082
:102E5C000B460097FFF7BEFCB5F90000B5F9021060
:102E6C00B4F9023002460097FFF7B4FCB4F9000045
:102E7C00B5F90210B4F9023002460A9703B0BDE866
:102E8C00F043FFF7A7BC2DE9F04F8DB009900A91E4
:102E9C000B93BDF85C00BDF85830C2F101019446AB
:102EAC008AB20593089007921646654600240B9F3C
:102EBC00002F43D0099B0A991FFA83F88FB21FFA8F
:102ECC0085F9A0B209EB0702C0EB080B00EB080A6E
:102EDC00089B11B20FFA8BFB0FFA8AFA069000933B
:102EEC0058460B465246CDF80CC0FFF773FCC9EBA5
:102EFC000700089A01B20B46584600925246FFF75B
:102F0C0069FC0699C9EB080CCB190898C84419B28E
:102F1C000FFA8CF90FFA88FB0B4600905A4648467C
:102F2C00FFF758FC069A089BBF1A39B20093484623
:102F3C005A460B46FFF74EFCDDF80CC0310407D5A2
:102F4C00A1B2F01C00EB41024F1C96B2BBB209E0DF
:102F5C0029B20536601A06EB4002671C013D96B299
:102F6C00BBB2ADB21BB229B201348B429FDD6546B8
:102F7C004FF00009099E0A9F1FFA86F81FFA89F480
:102F8C00AEB2BFB204EB080006EB070E82B21FFA1A
:102F9C008EFA069251460698059A06EB080BCDF868
:102FAC000CA0FFF7FFFBE3199BB21FFA8BFB194632
:102FBC005846059A0493FFF7F5FBDDF80CC0C4EBFB
:102FCC0008011FFA81FA50466146059AFFF7EAFBA1
:102FDC00C6EB0808049A1FFA88F811464046059A71
:102FEC00FFF7E0FB381B83B2BE1B19465846059A07
:102FFC00B6B20493FFF7D6FB06983146059AFFF755
:10300C00D1FB50463146059AFFF7CCFB4046059A5A
:10301C000499FFF7C7FB0798020407D5033000EBB0
:10302C00440291B201340791A3B20CE0079A2BB27F
:10303C00511DC3EB090001EB400291B20134013D7B
:10304C000791A3B2ADB21CB22BB29C4209F101099B
:10305C0090DD0DB0BDE8F08FF8B5054645200C4667
:10306C0016461F46FFF790FA2846FFF7BBFA013DBC
:10307C004620FFF789FA701980B2FFF7B3FA4420A3
:10308C00FFF782FA2046FFF7ADFA4420FFF77CFAEF
:10309C00013C3F19390201F47F40BDE8F840FFF7CD
:1030AC00A1BAF8B5074600200E46154601464FF466
:1030BC00A072F023FFF7D0FF0024311901342B1933
:1030CC0013F8012C89B21AB13846FFF757FBF4E715
:1030DC00F8BD10B50446002001464FF4A072F02351
:1030EC00FFF7BAFF034A20460021BDE81040FFF766
:1030FC00D8BF00BFAA5F070038B5054600200146BF
:10310C004FF4A072F023FFF7A7FF4E20FFF73CFA15
:10311C000020FFF767FA4F20FFF736FA0020FFF781
:10312C0061FA2220FFF730FAFFF7DAF94FF4963400
:10313C002846FFF7E9F9013CFAD1BDE83840FFF722
:10314C00DDB938B50C460546FFF786FF4E20FFF774
:10315C001BFA2846FFF746FA4F20FFF715FA2046D0
:10316C00FFF740FA2220BDE83840FFF70DBA2DE9F1
:10317C00F04117461E46BDF81880FFF7E2FFFFF737
:10318C00AFF90024B44209D20025BD4204D2404616
:10319C00FFF7BAF90135F8E70134F3E7BDE8F04180
:1031AC00FFF7ACB92DE9F3410C4605469846BDF83E
:1031BC002010002A41D0B0F800E022880FFA8EF3DC
:1031CC0010B267886E88984238B233B213DD9842D9
:1031DC001FFA8EFC07DDB6B2013A0CF10100731C2C
:1031EC00CCEB020211E0BFB2013A0CF101007B1CE6
:1031FC00CCEB020218E0984292B20EDDB6B20EF1A0
:10320C00FF3E501C731CC2EB0E02013FBE1B009113
:10321C0080B299B292B2B3B20DE0BFB20EF1FF3CE4
:10322C00501C7B1CC2EB0C02013EF71B009180B2C0
:10323C0099B292B2BBB2FFF79AFFB5F90210B5F989
:10324C000000B4F900200B46CDF80080FFF7C2FA5D
:10325C00B4F90210B5F90000B4F900200B46CDF812
:10326C000080FFF7B7FAB5F90000B5F90210B4F910
:10327C0002300246CDF80080FFF7ACFAB4F900003A
:10328C00B5F90210B4F902300246CDF8208002B034
:10329C00BDE8F041FFF79EBA2DE9F047DDF820803C
:1032AC0017469946FFF74DFFFFF71AF91025002630
:1032BC004E450DD208EB450A0024BC4205D23AF823
:1032CC001400FFF721F90134F7E7ED190136EFE7A8
:1032DC00BDE8F047FFF712B9002001464FF4A07289
:1032EC00F023FFF72EBF10B504460120FFF74CF971
:1032FC00032C12D8DFE804F00205080B47F2EF208C
:10330C0007E047F2EF0004E043F2EF2001E043F264
:10331C00EF00BDE81040FFF765B910BD012110B5F5
:10332C0002200A46FCF763FF002020210122FCF753
:10333C005EFF4FF4807101220220FCF758FF02203F
:10334C00FDF790FFFFF7FFF80120FFF7F1F80220DF
:10335C00FDF788FF2820FFF717F90620FFF742F941
:10336C000020FFF711F90120FFF73CF91020FFF7BF
:10337C000BF90020FFF736F90020FFF7B4FF02200D
:10338C00FFF702F94FF4C060FFF72CF90320FFF7A9
:10339C00FBF846F63820FFF725F91120FFF7F4F873
:1033AC0046F67000FFF71EF90F20FFF7EDF800202E
:1033BC00FFF718F90B20FFF7E7F845F20830FFF795
:1033CC0011F90C20FFF7E0F80320FFF70BF90D20A3
:1033DC00FFF7DAF80A20FFF705F90E20FFF7D4F80B
:1033EC004FF43850FFF7FEF81E20FFF7CDF8BE2043
:1033FC00FFF7F8F82520FFF7C7F84FF40040FFF768
:10340C00F1F82620FFF7C0F84FF4F040FFF7EAF888
:10341C004E20FFF7B9F80020FFF7E4F84F20FFF734
:10342C00B3F80020FFF7DEF81220FFF7ADF840F6F6
:10343C00D900FFF7D7F83020FFF7A6F80020FFF7E8
:10344C00D1F83120FFF7A0F84FF48270FFF7CAF8DB
:10345C003220FFF799F84FF48070FFF7C3F840F271
:10346C0005343320FFF790F82046FFF7BBF83420E3
:10347C00FFF78AF840F20550FFF7B4F83520FFF754
:10348C0083F82046FFF7AEF83620FFF77DF840F2C0
:10349C000770FFF7A7F83720FFF776F84FF4407066
:1034AC00FFF7A0F83A20FFF76FF84FF49050FFF7B2
:1034BC0099F83B20FFF768F84FF40060FFF792F89B
:1034CC000720FFF761F83320FFF78CF80520FDF794
:1034DC00C9FE2220BDE81040FFF756B803204FF07C
:1034EC0000710122FCF783BE08B54FF080431A78B7
:1034FC0002F0FE00187000F08FF8FFF7EFFFFDF7F9
:10350C0017FF0B4B0B4800224FF47A71196080F8AF
:10351C0023204FF4E1310848FEF70AF90748FDF77C
:10352C0023FD0748FDF732F8BDE80840FFF7F6BE6B
:10353C006003001000ED00E000C0004000000340FC
:10354C0000C0014007B5FFF7CFFF00204FF4FC632C
:10355C00014600934FF4A072C823FFF708FE1F200A
:10356C000090C82100204FF4A0722823FFF7FFFD24
:10357C00FEE70000224B10B5D3F88820D3F80C11CD
:10358C00C2F30160032801F003011E4A25D1012971
:10359C00D3F88840D3F888000BD00229D3F8041153
:1035AC004FEA44434FEA534303F1010308D0164C4E
:1035BC0008E06404D3F80411630C0133134C01E0EC
:1035CC004FF47A446343C0F307400130C9B2B3FBF4
:1035DC00F0F3481CB3FBF0F00FE0D3F80431D8B291
:1035EC00431C012903D0022903D0094903E00949EE
:1035FC0001E04FF4FA41B1FBF3F0106010BD00BFD5
:10360C0000C00F4008C0072000127A0000366E017F
:10361C0000093D00001BB700334B2022C3F8A0214A
:10362C001946D1F8A001304B4006FAD52F49022299
:10363C000120C3F80421C3F80C015522C3F88410EF
:10364C00AA21C3F88C10C3F88C20C3F88000C3F8EF
:10365C008C10C3F88C202448D0F888305901FAD546
:10366C000321AA225523C0F88010C0F88C20C0F882
:10367C008C30D0F888101C4B11F0407FF9D01320FF
:10368C00C3F8A400AA2155220120C3F8AC10C3F83A
:10369C00AC20C3F8A000C3F8AC10C3F8AC20124A9D
:1036AC00D2F8A8305B05FAD50321AA205523C2F81D
:1036BC00A010C2F8AC00C2F8AC30D2F8A8100A487E
:1036CC0011F4407FF9D00022C0F8A8214FF4004338
:1036DC00C0F8AC2120214FF4A042C0F8C430C0F88F
:1036EC00C8110260704700BF00C00F4018000100F5
:1036FC00FEE7684620F007018D4601B500230F4A0E
:10370C000F499818884204D20E49585898500433DF
:10371C00F5E70D480D4A904203D2002240F8042BE5
:10372C00F8E70B4B0B48834203D2002143F8041BF0
:10373C00F8E7FFF771FFFFF705FFFEE700C0072072
:10374C0010C00720C05F07000000001068030010C5
:10375C0010C0072010C00720704700BF80F0004049
:10376C0002E000BF81F0004142001FBF5FEA41034D
:10377C0092EA030F7FEA226C7FEA236C6AD04FEA4D
:10378C001262D2EB1363C1BFD21841404840414092
:10379C00B8BF5B42192B88BF704710F0004F40F444
:1037AC00000020F07F4018BF404211F0004F41F460
:1037BC00000121F07F4118BF494292EA030F3FD02C
:1037CC00A2F1010241FA03FC10EB0C00C3F120033F
:1037DC0001FA03F100F0004302D5494260EB4000CE
:1037EC00B0F5000F13D3B0F1807F06D340084FEA39
:1037FC00310102F10102FE2A51D2B1F1004F40EB2E
:10380C00C25008BF20F0010040EA03007047490095
:10381C0040EB000010F4000FA2F10102EDD1B0FA60
:10382C0080FCACF1080CB2EB0C0200FA0CF0AABF55
:10383C0000EBC25052421843BCBFD04018437047F3
:10384C0092F0000F81F4000106BF80F400000132F9
:10385C00013BB5E74FEA41037FEA226C18BF7FEAD0
:10386C00236C21D092EA030F04D092F0000F08BF12
:10387C000846704790EA010F1CBF0020704712F0F9
:10388C007F4F04D1400028BF40F00040704712F138
:10389C0000723CBF00F50000704700F0004343F09D
:1038AC00FE4040F4000070477FEA226216BF0846D3
:1038BC007FEA23630146420206BF5FEA412390EA96
:1038CC00010F40F4800070474FF0000304E000BF8C
:1038DC0010F0004348BF40425FEA000C08BF70473D
:1038EC0043F0964301464FF000001CE050EA010201
:1038FC0008BF70474FF000030AE000BF50EA010216
:10390C0008BF704711F0004302D5404261EB410102
:10391C005FEA010C02BF84460146002043F0B64327
:10392C0008BFA3F18053A3F50003BCFA8CF2083A4C
:10393C00A3EBC25310DB01FA02FC634400FA02FC55
:10394C00C2F12002BCF1004F20FA02F243EB02005C
:10395C0008BF20F00100704702F1200201FA02FCBE
:10396C00C2F1200250EA4C0021FA02F243EB0200B1
:10397C0008BF20EADC7070474FF0FF3C06E000BF48
:10398C004FF0010C02E000BF4FF0010C4DF804CDDC
:10399C004FEA40024FEA41037FEA226C18BF7FEAEC
:1039AC00236C11D001B052EA530C18BF90EA010FEE
:1039BC0058BFB2EB030088BFC81738BF6FEAE1707D
:1039CC0018BF40F0010070477FEA226C02D15FEA19
:1039DC00402C05D17FEA236CE4D15FEA412CE1D085
:1039EC005DF8040B704700BF844608466146FFE74C
:1039FC000FB5FFF7C9FF002848BF10F1000F0FBD2E
:103A0C004DF808EDFFF7F4FF0CBF012000205DF826
:103A1C0008FB00BF4DF808EDFFF7EAFF34BF0120AB
:103A2C0000205DF808FB00BF4DF808EDFFF7E0FF44
:103A3C0094BF012000205DF808FB00BF4DF808ED95
:103A4C00FFF7D2FF94BF012000205DF808FB00BFF8
:103A5C004DF808EDFFF7C8FF34BF012000205DF8DA
:103A6C0008FB00BF4BB942B9002908BF002802D09F
:103A7C004FF0FF31084600F03BB882B0EC462DE920
:103A8C00005000F01DF8DDF804E002B00CBC7047EB
:103A9C002DE9F0411646984604460D4600F02AF8EA
:103AAC0006FB01FCA6FB002300FB08C7FB18A21AAF
:103ABC0065EB0303069CC4E90023BDE8F08100BF5D
:103ACC002DE9F041904606460F461D4600F070F970
:103ADC0000FB05F3A0FB084508FB0138069B454499
:103AEC00341B67EB0505C3E90045BDE8F08100BF59
:103AFC00704700BF00292DE9F00F1D46C0F29D80D4
:103B0C000024002DC0F2948080460F4694461E4639
:103B1C00E3BB8A4255D9B2FA82F747B1C7F1200507
:103B2C0020FA05F601FA07F1BA40B8403143170CF8
:103B3C00B1FBF7F61FFA82FC07FB16110CFB06F51E
:103B4C00030C43EA01439D4208D9711E9B1880F077
:103B5C0013819D4240F21081023E9B18591BB1FB10
:103B6C00F7F507FB15130CFB05FC80B240EA03418B
:103B7C008C4507D96B1E8A1880F00081944540F261
:103B8C00FD80023D45EA0641002503E08B420CD93D
:103B9C00002529460A462B4614B1524263EB4303D7
:103BAC0010461946BDE8F00F7047B3FA83F5002DA7
:103BBC0040F087808B4201D38242EAD80025012154
:103BCC00E8E712B90126B6FBF2F2B2FA82F6002E41
:103BDC0039D18E1A130C1FFA82FC0125B6FBF3F7B0
:103BEC0003FB17610CFB07F84FEA104949EA014641
:103BFC00B04506D9791EB61802D2B04500F2D38072
:103C0C000F46C8EB0606B6FBF3F103FB11630CFB86
:103C1C0001FC80B240EA03439C4506D94E1E9A181B
:103C2C0002D2944500F2C280314641EA0741B1E725
:103C3C00E443524263EB430366E7404261EB4101CC
:103C4C004FF0FF345DE7B240C6F1200921FA09F7C5
:103C5C0020FA09F901FA06F1130CB7FBF3F81FFA75
:103C6C0082FC03FB18770CFB08F549EA01094FEAC3
:103C7C00194141EA0747B040BD420AD9BF1808F1C3
:103C8C00FF3680F08E80BD4240F28B80A8F1020896
:103C9C00BF18791BB1FBF3F503FB15170CFB05F6ED
:103CAC001FFA89F949EA07418E4206D96F1E891815
:103CBC0071D28E426FD9023D89188E1B45EA084598
:103CCC008CE7C5F1200122FA01F306FA05F627FA72
:103CDC0001F207FA05F720FA01F11E434FEA1649E3
:103CEC00B2FBF9F81FFA86FA09FB18220AFB08FB4B
:103CFC000F433B0C43EA024293450CFA05FC08D9EE
:103D0C00921908F1FF314AD2934548D9A8F102081B
:103D1C009219CBEB0203B3FBF9F109FB11320AFB4D
:103D2C0001FABFB247EA02439A4506D94A1E9B19CB
:103D3C0033D29A4531D902399B1941EA08410F0C0B
:103D4C001FFA8CF808FB07F68AB24FEA1C4C08FBEA
:103D5C0002F80CFB02620CFB07FC02EB18429642C9
:103D6C0088BF0CF5803CCAEB03030CEB124C63458B
:103D7C000ED305D000250DE70E46EFE61D4601E7F4
:103D8C0000FA05F01FFA88F808EB0245A842F1D2B8
:103D9C0001390025FEE63D468FE71146CDE7884602
:103DAC00B7E7B04675E7023FB6182AE702393CE799
:103DBC002DE9F007144605460E46002B3DD18A42EC
:103DCC0049D9B2FA82F747B1C7F1200120FA01F2C2
:103DDC0006FA07F6BC40BD401643220CB6FBF2F0C7
:103DEC00A1B202FB106601FB00F32F0C47EA06465A
:103DFC00B34208D9471E361980F0FA80B34240F21C
:103E0C00F78002383619F61AB6FBF2F302FB13628E
:103E1C0001FB03F1ADB245EA0242914207D95E1EA5
:103E2C00121980F0E780914240F2E480023B43EAB1
:103E3C0000400021BDE8F00770478B4243D8B3FA2D
:103E4C0083F4002C42D18B4202D3824200F2E180F7
:103E5C0000210120EEE712B90127B7FBF2F4B4FA06
:103E6C0084F2002A40F089800A1B230CA7B201219E
:103E7C00B2FBF3F603FB162207FB06F04FEA154CD8
:103E8C004CEA0242904207D9121906F1FF3C02D2C9
:103E9C00904200F2D0806646121AB2FBF3F003FB9C
:103EAC00102307FB00F7ADB245EA03439F4207D945
:103EBC00421E1B1980F0A0809F4240F29D80023868
:103ECC0040EA0640B6E700210846B3E7C4F12006F5
:103EDC0022FA06F703FA04F321FA06F501FA04F1C3
:103EEC0020FA06F63B434FEA134CB5FBFCF71FFADE
:103EFC0083F80CFB175508FB07F946EA010A4FEA51
:103F0C001A4141EA0545A94502FA04F204D97E1E7C
:103F1C00ED18C0F081803746C9EB0501B1FBFCF60A
:103F2C000CFB161508FB06F81FFA8AFA4AEA05413B
:103F3C00884503D9751EC91874D32E4646EA074620
:103F4C00370C1FFA82FC0CFB07F5120CB3B20CFBFE
:103F5C0003FC02FB035302FB07F203EB1C439D42E1
:103F6C0088BF02F58032C8EB010102EB134291428B
:103F7C004CD343D0304600215CE79440C2F120057D
:103F8C0021FA05F620FA05F501FA02F1230CB6FB2D
:103F9C00F3FCA7B203FB1C6607FB0CF829430D0CC2
:103FAC0045EA0646B04500FA02F508D936190CF177
:103FBC00FF303ED2B0453CD9ACF1020C3619C8EBFF
:103FCC000602B2FBF3F003FB102607FB00F889B2E4
:103FDC0041EA0642904506D9461E121927D2904551
:103FEC0025D902381219C8EB020240EA0C413FE70E
:103FFC00384608E733461AE7104661E700FA04F042
:10400C001FFA8CFC0CEB03439842B3D2701E0021B8
:10401C0010E7214620460DE7A9457FF67CAF023F0D
:10402C00ED1879E7884588D9023EC91886E73046ED
:10403C00D9E78446C3E7023E12192DE7F0B4840792
:10404C00034600F08D80541E002A00F08780E5079F
:10405C00CEB211D41A4602F8016B134615469207DC
:10406C0010D0621E002C79D003F8016B14469A070D
:10407C001D4607D0013CEDE7034603F8016B9A0798
:10408C001D46F7D1032C52D9CEB246EA06270F2C87
:10409C0047EA07432DD9A4F1100217460F2FC2F39C
:1040AC0000162B606B60AB60EB6005F1100216D94B
:1040BC003EB1103F136053609360D36010320F2FEA
:1040CC000DD9203F02F11006136053609360D3604A
:1040DC00136153619361D36120320F2FF1D8A4F196
:1040EC00100222F00F0204F00F041032032C1544BE
:1040FC001DD9271F3E462A46032E42F8043BC7F320
:10410C0080070DD927B1043E032E42F8043B07D992
:10411C00174647F8043B083E53603A1D032EF7D868
:10412C00231F23F00302131D04F00304ED18ACB19C
:10413C00C9B2EA432C1905F8011BA318A54203F0D8
:10414C0001020BD01AB105F8011BA54206D02B4673
:10415C0003F8011B69705D1CA542F8D1F0BC7047D7
:08416C00054614468EE700BF72
:084174008CF9FF7F010000003F
:10417C0000C0092020C0092040C0092060C00920CF
:10418C0080C0092000C0092020C0092040C009209F
:10419C0060C0092080C0092000C0092020C009206F
:1041AC0040C0092060C0092080C009200141810164
:1041BC000230313233343536373839414243444595
:1041CC0046001B5B48001B5B324A002563005F0006
:1041DC002F003A0007000040000000000000000023
:1041EC0000000000000000000000000000000000C3
:1041FC00000000000000CF7B0842494A484A284290
:10420C00494A694A484A2842494A494A494A494A14
:10421C00494A494A494A494A484A284A284228426E
:10422C00084207420742E739E739E73907420842B3
:10423C002842484A494A494A494A494A494A494A04
:10424C00494A2842484A484A4842484A494A494AFF
:10425C00494A494A494A494A494A494A494A494ABA
:10426C00494A494A494A494A494A494A494A494AAA
:10427C00494A494A494A494A494A494A494A494A9A
:10428C00494A494A494A494A28422842494A494ADC
:10429C0028422842494A494A494A494A494A494ACC
:1042AC00494A494A494A494A494A494A494A494A6A
:1042BC00494A494A494A494A494A494A494A484A5B
:1042CC00484A28420842084228420842074208420B
:1042DC00284A484A484A494A494A494A494A494A5D
:1042EC00494A494A494A494A494A494A494A494A2A
:1042FC00494A494A494A494A494A494A494A484A1B
:10430C0028422842494A494A4842284A494A494A85
:10431C00494A494A494A494A494A494A494A494AF9
:10432C00494A494A494A494A494A494A494A494AE9
:10433C00494A494A494A494A494A494A494A494AD9
:10434C00494A494A284A2842484A484A2842484A3F
:10435C00494A494A494A494A484A484A284228420D
:10436C002842084208420842084208422842284291
:10437C002842484A484A494A494A494A494A494AC4
:10438C00494A494A494A494A494A484A2842494AB3
:10439C00694A494A2842494A494A494A494A494A82
:1043AC00494A494A494A494A494A494A494A494A69
:1043BC00494A494A494A494A494A494A494A494A59
:1043CC00494A494A494A484A2842494A694A494A53
:1043DC002842494A494A494A494A494A494A494A62
:1043EC00494A494A494A494A494A494A494A494A29
:1043FC00494A494A494A494A494A494A494A494A19
:10440C00494A48422842494A494A28422842484A8D
:10441C00494A494A494A494A494A494A494A494AF8
:10442C00494A494A494A494A494A494A494A494AE8
:10443C00494A494A494A494A494A494A494A494AD8
:10444C00494A494A494A494A2842484A484A484AF4
:10445C00284A494A494A494A494A494A494A494AD9
:10446C00494A494A494A494A484A484A484A484AAC
:10447C0028420842CF7BED9B2AC44AC4E249E0188B
:10448C00B16C188681294029C9AB2AC40ABC0ABC64
:10449C000ABC0ABC0ABC0ABC2ABC2ABC2AC42AC450
:1044AC002AC42AC40ABCA1396029612961292021A6
:1044BC00068B4ACC2ABC2ABC0ABC0ABC0ABC2AC43D
:1044CC00C9AB612940296029202103524ACC2AC456
:1044DC002AC42ABC2ABC0ABC0ABC2ABC2ABC2ABCD8
:1044EC002ABC2AC42AC42ABC2ABC2ABC2ABC0ABCA0
:1044FC000ABC2ABC2AC42AC42AC42ABC2ABC2ABC88
:10450C002ABC2AC44ACC278B20210021136D8B5343
:10451C0000216129C9B32AC40ABC0ABC0ABC0ABC62
:10452C000ABC0ABC0ABC0ABC0ABC0ABC0ABC0ABC4F
:10453C002ABC2ABC2ABC2ABC2ABC2AC42AC42AC427
:10454C004ACC0683202120297575294B0021813105
:10455C0009BC2AC42ABC2ABC2ABC2ABC2ABC0ABC58
:10456C000ABC0ABC0ABC0ABC0ABC0ABC2ABC2ABCCF
:10457C002ABC2ABC2ABC2ABC2ABC2AC44ACCA57296
:10458C0020214029B67DA7420021A2390ABC2AC4A9
:10459C002ABC2ABC2ABC2ABC0ABC0ABC0ABC0ABC5F
:1045AC000ABC0ABC0ABC0ABC0ABC0ABC0ABC0ABCCF
:1045BC002AC42AC40ABC0ABC0ABC2ABC2ABC2ABC0F
:1045CC002ABC4AC4E2492021602960292021856A3D
:1045DC006BCC2AC42AC42AC42ABC2ABC2AC42AC426
:1045EC002AC42AC42AC42AC42AC42AC42AC42AC44F
:1045FC002AC42AC42ABC2AC42AC42AC42AC42AC447
:10460C002AC42AC42AC42AC44ACCA572C0188B5BFB
:10461C009EBF8642E018278B4ACC2ABC2ABC2ABCF7
:10462C002ABC0ABC0ABC0ABC0ABC0ABC0ABC0ABC2E
:10463C002ABC2AC42AC42AC42AC42AC42AC42AC406
:10464C002AC42AC44ACC6462C018AC53BB8E043A48
:10465C000021679B4AC40ABC0ABC0ABC0ABC0ABC3F
:10466C000ABC0ABC0ABC0ABC0ABC0ABC0ABC2ABCEE
:10467C002ABC2ABC2ABC2ABC2ABC2ABC2AC42AC4EE
:10468C004ACC235AE0182E5C798EC331202188A3A2
:10469C004AC40ABC0ABC0ABC0ABC0ABC0ABC0ABC96
:1046AC000ABC0ABC0ABC0ABC0ABC0ABC0ABC0ABCCE
:1046BC000ABC0ABC2AC42AC40ABC0ABC0ABC0ABC6E
:1046CC002ABC2ABC2AC409BC81314029602940215A
:1046DC00C2412AC42ABC0ABC0ABC0ABC0ABC0ABC19
:1046EC000ABC0ABC2AC409BCA1394029602960292A
:1046FC002021068B0DA42A6B024A024A09B484625B
:10470C00443AA642E2394ABCCBE4AFED56FF35FF42
:10471C0035FF35FF35FF35FF35FF35FF35FF35FFED
:10472C0055FF35FFECDC0242A131A12943526ACC82
:10473C008AD431F676FF55FF55FF55FF76FFF4FE10
:10474C00ECE44ABC0242A131C5722ABC4352234A52
:10475C0009AC2DED0CE514FF56FF35FF35FF55FF69
:10476C0014FF0CE5ECE4ECE4ECE4ECE4CBE472F6E2
:10477C0076FF35FF0DE5CCE4ECE4ECE4ECE4ECE4A2
:10478C000CED879BE241E57AABD4435A443A233A89
:10479C00C1394ABCECE4D4FE55FF35FF35FF35FF7B
:1047AC0035FF35FF35FF35FF35FF55FF56FF14FF3D
:1047BC000CE5ECE4ECE4ECE4ECE4ECE40CED478B21
:1047CC00E24126838BD4234A653A033202426AC4FF
:1047DC00ECE414FF55FF35FF35FF35FF35FF35FF92
:1047EC0035FF35FF35FF55FF76FFF4FEECE4ECE4C6
:1047FC00ECE4ECE4ECE4ECE40CED2683E241478BD6
:10480C008ACC02428542E231234A8BCC0DE515FF5E
:10481C0035FF35FF35FF35FF35FF35FF35FF35FFEC
:10482C0035FF35FF35FF35FF35FF76FF76FFB7FFD8
:10483C002DB5A883D7FF76FF55FF35FF35FF35FF24
:10484C0055FF6EEDABD4E9AB8031024AABD4A89BDB
:10485C00024A26834DF5ECE472F676FF55FF35FFE0
:10486C0035FF76FFD3FECBE4ECE4ECE4ECE4CBE4F4
:10487C00AFED76FF76FFAFEDCBE4ECE4ECE4ECE4EB
:10488C00ECE40CED4AC4024A024A879B468BE331A6
:10489C00E752C231A89BCCE42DE535FF35FF35FF3F
:1048AC0035FF35FF35FF35FF35FF35FF35FF55FF3C
:1048BC0076FF6EEDCBE4ECE4ECE4ECE4ECE40CED34
:1048CC0029BC024A024AA8A3057B0332C64AC2315C
:1048DC00E8ABCCE44DED35FF35FF35FF35FF35FF4B
:1048EC0035FF35FF35FF35FF55FF55FF55FF4DE5BE
:1048FC00CBE4ECE4ECE4ECE4ECE40CEDE9AB0242EC
:10490C00024AE8ABC46A2332A642C23109B4CBE4F2
:10491C006EED55FF35FF35FF35FF35FF35FF35FFA4
:10492C0035FF35FF35FF35FF35FF35FF76FF76FF59
:10493C0096FFB3EE024A0DADD7FF76FF55FF35FF5C
:10494C0035FF55FF15FF0DE58BCC024A8029645AC3
:10495C00ABD4CCE451F676FF55FF55FF55FF35FF30
:10496C0035FF55FF35FF0CE50242A131A129435219
:10497C006ACCCBE44EACD09C93DE52D635FF0DD531
:10498C00E9B309BC4ABCECE4D4FE56FFB7FFB7FF51
:10499C00B7FFB7FFB7FFB7FFB7FFB7FFB7FFB7FF5B
:1049AC0056FF4EE5ABDC29BC09BCE9BBCCCC35FFD2
:1049BC00F4FE76FFB3FE8EEDAFED6EE54EE54EE503
:1049CC00ECE4CCDC02428131C1412252A131A13153
:1049DC00C239A89B0DED4EE54DE515FFB7FF55FF10
:1049EC00AFEDF4F6F4FE14FF15FF15FF35FFF0EDF7
:1049FC002DE56EE5D4F6F4FEF4FEF4FEF4FEF4FEC2
:104A0C0035FFD3E652CEB3E676FF0DCDE9B329BC24
:104A1C004ABCECE4F4FEB7FFB7FFB7FFB7FFB7FF34
:104A2C00B7FFB7FFB7FFB7FFD8FF10EE2DE56EE568
:104A3C00F4F6F4FEF4FEF4FEF4FEF4FE35FFB3E6F9
:104A4C0052CEB3E656FFCCCCE9B329BC4AC40DE533
:104A5C0014FFB7FFB7FFB7FFB7FFB7FFB7FFB7FF3D
:104A6C00B7FFB7FFD7FFD0ED2DE58FE5F4FEF4FED1
:104A7C00F4FEF4FEF4FEF4FE35FFB3E652CED4EEB3
:104A8C0035FF8BC409BC29BC4AC44DED35FFB7FFBB
:104A9C00B7FFB7FFB7FFB7FFB7FFB7FFB7FFB7FF5A
:104AAC00B7FF97FFB7FFF8FF35E70663066326638A
:104ABC00644AE239C55AA5524AB4F4FED8FFB7FF8E
:104ACC00F0F52DEDE57A4863D6858039425A024AD5
:104ADC00A131E239234A09B44EED4EE56EE576FF7D
:104AEC00B7FFD0EDCFED14FFF4FE15FF15FF35FF2A
:104AFC0092F62DE54DE572F614FFF4FEF4FEF4FE8D
:104B0C00F4FE14FFF4F652D652D614EFF0E5E9B3E6
:104B1C0009B429BCABDC72F655FFB7FFB7FFB7FF82
:104B2C00B7FFB7FFB7FFB7FFB7FFD8FFB3F62DE559
:104B3C004EE593F614FFF4FEF4FEF4FEF4FE14FFBF
:104B4C00F4EE52D652D615F7AFDDE9B309BC2ABC48
:104B5C00ABDC93F655FFB7FFB7FFB7FFB7FFB7FF57
:104B6C00B7FFB7FFB7FFD8FF72F62DE54EE5B3F6EA
:104B7C0014FFF4FEF4FEF4FEF4FE14FFD4EE52D651
:104B8C0052D635F76EDDE9B309BC2ABCCCDCB3F6E2
:104B9C0056FFB7FFB7FFB7FFB7FFB7FFB7FFB7FFBA
:104BAC00B7FFB7FFB7FF97FFB7FFF8FFC97BE55A11
:104BBC000663E55AA1314342A552C98B6EED35FF10
:104BCC00F8FF72F68EEDECE4C56A378E126D435A1F
:104BDC000DEDCCDC2DE54EE56EEDAFF58FED15FF53
:104BEC00B7FF56FF4EE5ABDC29BC09BCE9BBACCC2E
:104BFC0035FF55FF11AD6EA4CFF5AFED8FED0CE584
:104C0C00CCE4CCE4CCE4ABDC6EE56EE56EE56EE5B5
:104C1C006EE56EE56EE56EE56EE56EE52DE514F779
:104C2C00B7FFD4F6F4FE15FF15FF15FF55FFD7FFA0
:104C3C00D7FFF9FF4EB5225A025211DE35FF93F61B
:104C4C00ECE4ECDCC1414953588EF16C8031802985
:104C5C00E5726BCCCCE472F6B3F656FF97FF15FFFA
:104C6C000DE5B7FFD8FFF4F66EE58EE56EE551EE77
:104C7C00D4F6F4F6B7FFD7FFD7FFD7FFD8FF96FFD0
:104C8C008EE58EEDAFED8FED8EE50CE5CCE4CCE44E
:104C9C00CCE4ABDC6EE56EE56EE56EE56EE56EE5DF
:104CAC006EE56EE56EE56EE54EE552F6D4F6F4FE75
:104CBC00B7FFD7FFD7FFD7FFD8FF56FF6EE58FEDB5
:104CCC00AFED8FED8EE5ECE4CCE4CCE4CCE4CCDCC5
:104CDC006EE56EE56EE56EE56EE56EE56EE56EE530
:104CEC006EE56EE54EE572F6D4F6F4FED7FFD7FF0F
:104CFC00D7FFD7FFD8FF35FF6EE58FEDAFED8FED0A
:104D0C006EE5ECE4CCE4CCE4CCE4CCDC8EE56EE5F6
:104D1C006EE56EE56EE56EE56EE56EE56EE56EE5EF
:104D2C006EE576FF31F6A883A55281318131813150
:104D3C004029E6628FC546A3D0DD11EE6EE58EE507
:104D4C00A46A435AC139E231CC5BD58558862D64AF
:104D5C004029435209B44ACC10EED3F6B3F676FF91
:104D6C0097FF0DE54EE5F8FF76FFAFED8FE56EE5AD
:104D7C00F0EDD3F6D3F676FFD8FFD7FFD7FFD7FFEA
:104D8C00F8FF35FF6EE5AFEDAFED8FED2DE5CBE424
:104D9C00CCE4CCE4ABDC2DE58EE56EE56EE56EE5A2
:104DAC006EE56EE56EE56EE56EE54EE5F0EDD3F67F
:104DBC00D4F697FFD7FFD7FFD7FFD7FFF8FFF4F64E
:104DCC006EE5AFEDAFED8FED2DE5CCE4CCE4CCE4AE
:104DDC00ABDC4EE58EE56EE56EE56EE56EE56EE5FB
:104DEC006EE56EE56EE54EE511EED3F6D4F697FF63
:104DFC00D7FFD7FFD7FFD7FFF8FFD3F66EE5AFEDA0
:104E0C00AFED8FED0DE5CCE4CCE4CCE4ABDC4EE5C2
:104E1C008EE56EE56EE56EE56EE56EE56EE56EE5CE
:104E2C006EE52DE5D3F6B7FFAFE54773A1318031C1
:104E3C00813181312021C97BEDBCABC4F4FEAFEDD7
:104E4C00AFED678B2352635AC1314953E74A646211
:104E5C002DEDABDCF0ED76FF0DBDC149235A93DE91
:104E6C00F8FF96FFF4F6F4FE15FF15FF15FF35FF5E
:104E7C00D7FFF8FF52ADB0A4D3FE92F6B3F6D4F63A
:104E8C00B3F6B3F6B3F6B3F692F692F692F692F652
:104E9C0092F692F692F693F6B3F6B3F6D3F6F0EDED
:104EAC008EE5AFEDAFEDAFEDAFEDAFEDAFED8EE568
:104EBC00D0F5ACB4845280294FB52A8C4ECDD0F5A8
:104ECC00ABD4C56A60316E6C1C9F084B4021067BCD
:104EDC006AD4F0F5F4FEB7FFB7FF96FF97FF15FF06
:104EEC00CCDC8FE5D3F6B3F62DE5D4F6B3F696FF0E
:104EFC00D3F6AFED8FE58FE58FE58FE58EE5AFED62
:104F0C0092F692F692F693F6B3F6D3F6B3F6B3F6B0
:104F1C00B3F6B3F692F692F692F692F692F692F603
:104F2C0092F693F6B3F6B3F6B3F6B7FF93F6AFED8E
:104F3C008FE58FE58FE58FE58EE5AFED92F692F676
:104F4C0092F693F6B3F6D4F6B3F6B3F6B3F6B3F62D
:104F5C0092F692F692F692F692F692F692F693F604
:104F6C00B3F6B3F6B3F6B7FF72F6AFED8FE58FE598
:104F7C008FE58FE56EE5D0ED93F692F692F693F60B
:104F8C00B3F6D4F6B3F6B3F6B3F693F692F692F60E
:104F9C0092F692F692F692F692F6B3F6B3F6B3F662
:104FAC00B3F6AFEDCBDCA8AB068381298129402178
:104FBC002763D4E6B7FFB3FE76FF55FF8EE56AD4C0
:104FCC00C8A3E9AB4352602924429EA72D64A64294
:104FDC0023524AC4CBE431F697FFB7FF97FF76FF15
:104FEC0096FF2DE5CBDC31EE56FFABDCAFEDD3F607
:104FFC0015FFF8FF52F68FE58EE58FE58FE58FE50F
:10500C006EE5D0ED93F692F692F693F6D3F6D3F6D0
:10501C00B3F6B3F6B3F692F692F692F692F692F6E1
:10502C0092F692F692F6B3F6B3F6B3F635FFF8FFB6
:10503C0031EE8FE58FE58FE58FE58FE56EE5F0EDD1
:10504C0093F692F692F693F6D3F6B3F6B3F6B3F66E
:10505C00B3F692F692F692F692F692F692F692F6E3
:10506C0093F6B3F6B3F6B3F655FFD8FF11EE8FE512
:10507C008FE58FE58FE58FE56EE5F0ED93F692F613
:10508C0092F6B3F6D3F6B3F6B3F6B3F6B3F692F6EE
:10509C0092F692F692F692F692F692F693F6B3F6A2
:1050AC00B3F6D3F610EE6EE58BDC87A3C2398129FB
:1050BC0060292342B0BDF4E676FF14FFB7FF14FF5E
:1050CC002DE5E9B3A89BC8A3E2412029402902425F
:1050DC002683CCE48FEDCCB48C9431CE444AE65A82
:1050EC000DCDAFEDAFEDAFEDAFEDAFEDAFEDAFED96
:1050FC008EE5CFF56EA452ADF9FFF8FF93FE11FECD
:10510C0076FFF9FFF8FFD7FFD7FFD7FFB7FFB7FF41
:10511C00B7FFB7FFF8FFF4F6CFEDF0EDD0ED52F698
:10512C0092F672F672F672F672F672F672F693F6F2
:10513C008EF564722021C2392A8CA131A8AB0CEDFA
:10514C008BCC8129A131C64A284BA141A89B6BCCA1
:10515C0010F631EED0EDAFED56FFB7FFB7FF76FF8F
:10516C0052F68BDC0DE56EE5ECE4F0EDF0EDF0EDD8
:10517C000DE58BDC31EE52F652F652F651F692F604
:10518C00D7FFD7FFF8FF76FF31FE31FE76FFF9FF30
:10519C00F8FFD7FFD7FFB7FFB7FFB7FFB7FFD7FFB2
:1051AC00F8FFF4F6CFEDF0EDF0EDD0EDECDCABDC90
:1051BC0051EE52F652F652F651EE93F6D8FFD7FF57
:1051CC00F8FF55FF31FE31FE97FFF9FFF8FFD7FFCF
:1051DC00D7FFB7FFB7FFB7FFB7FFD7FFF8FFD3F67F
:1051EC00CFEDF0EDF0EDD0EDCCDCABDC52F652F6C1
:1051FC0052F652F651EEB3F6F8FFD7FFF8FF15FF53
:10520C0031FE31FEB7FFF8FFF8FFD7FFD7FFB7FF2E
:10521C00B7FFB7FFB7FFD7FFF8FF93F6CFEDF0ED71
:10522C00F0ED51EE72F6B3FE31EE679B679B469341
:10523C006ABCD3FED8FFD8FFB7FF72F631EEB3F6D7
:10524C006EF5879BE2418542737DAB5B2021235237
:10525C004AC48FF593F611EE8FEDD4F6D7FFB7FF56
:10526C0096FFB3F6F0EDABDCAFEDABDC4DE5F0ED5E
:10527C00D0EDD0EDABDCAFED72F652F652F652F645
:10528C0051EEB3F6F8FFD8FFF9FF15FF10FEF4FE50
:10529C00F9FFF8FFD8FFD7FFD7FFB7FFB7FFB7FF6E
:1052AC00B7FFF8FF76FFD0EDF0EDF0EDD0EDCFEDE0
:1052BC00ABDCD0ED72F652F652F652F631EED4F675
:1052CC00F8FFD8FFF9FFF4FE10FE15FFF9FFF8FF09
:1052DC00D8FFD7FFD7FFB7FFB7FFB7FFB7FFF8FF70
:1052EC0055FFCFEDF0EDF0EDD0EDAFEDABDCF0ED2B
:1052FC0072F652F652F652F631EEF4F6F8FFD8FF8B
:10530C00F9FFD3FE10FE35FFF9FFF8FFD8FFD7FFEA
:10531C00D7FFB7FFB7FFB7FFB7FFF8FF35FFCFEDEC
:10532C00F0EDD0ED31EE52F672F6B3FEE9AB479BE1
:10533C00679BC8A3F0F5F4FED8FFB7FF96FF31EEDC
:10534C0072F6D0F50CED2683E23932758F6C60293C
:10535C000242ECE40CEDA57A2342AC9C434AC0100B
:10536C00CCB4D3FE72F672F672F672F672F672F670
:10537C0093F66EEDCC9BAFAC8FD52A844783E58238
:10538C00E9936B944B94F0E511EE92F697FFB7FF0F
:10539C00D7FFD3F6F0EDF0ED11EE11EE11EE11EEAC
:1053AC0011EE11EE11EE11EE11EE11EE11EE11EEF9
:1053BC0072F6F0D52763202100190A840DD5ECE490
:1053CC00CCDC678BE2398031024A09AC2DEDCBDCA9
:1053DC0093F635FF72FE92FE10EEF0ED72F6D7FFEB
:1053EC00B7FF92F652F652F672F651F631EE11EE16
:1053FC0031EE52F696FFB7FFB7FFB7FFB7FF76FF58
:10540C00F0ED11F66EC5A883E582E5820A946B8CEB
:10541C004B94F0E531EE55FF97FFB7FF76FF11EE99
:10542C00F0EDF0ED11EE11EE11EE11EE31EE72F633
:10543C0097FFB7FFB7FFB7FFB7FF56FFD0ED31F6B9
:10544C004EBDA883E58206832A944B8C6B9411EE97
:10545C0031EE56FF97FFD7FF56FF10EEF0ED10EE32
:10546C0011EE11EE11EE11EE31EE72F6B7FFB7FF41
:10547C00B7FFB7FFB7FF35FFD0ED31F62DB58883F9
:10548C00E58206832A944B8C8C9C31EE31EE76FFB0
:10549C0097FFD7FF35FFF0EDF0ED11EE11EE11EEA9
:1054AC0011EE97FFF8FFB7FF76FF72FE72FE72FEE9
:1054BC0052F610EEF0EDD0ED55FF35FF31F6F0ED74
:1054CC00268381296021443A4E64A139468B2ABC3B
:1054DC00ECECAFE5F8FFD4FE72FE31F6F0ED11EE18
:1054EC0076FFF8FF96FF52F651F672F672F631EE31
:1054FC0011EE11EE31EE35FFB7FFB7FFB7FFB7FF77
:10550C00B7FF35FFF0EDD0DD4B8CA883E582888B9F
:10551C008C9C2A8C8FD531F631EE76FFB7FFD7FFF6
:10552C0035FFF0EDF0ED11EE11EE11EE11EE11EE86
:10553C0031EE56FFB7FFB7FFB7FFB7FFB7FF14FF4A
:10554C00F0EDAFDD4B8C8883E582A88B8C942A8C94
:10555C00AFDD31F651F696FFB7FFD7FF15FFF0ED33
:10556C00F0ED11EE11EE11EE11EE11EE31EE76FFC3
:10557C00B7FFB7FFB7FFB7FFD7FFF4F6F0ED8FD546
:10558C002A846783E582C98B8B944B8CD0E511EE12
:10559C0072F697FFB7FFD7FFF4F6F0EDF0ED11EED2
:1055AC0011EEF0ED35FFF8FFD8FFB7FFB3FE72FE3A
:1055BC0072FE72FE11EE10EED0EDB3F6F8FFD3FED4
:1055CC0052FE09A4846A602981296F6CCC5BE24984
:1055DC00C8A3ECE4ECE40DCD476BC01020210A8489
:1055EC0011DE51F611EE11EE11EE11EE11EE11EE7F
:1055FC0011EE72FED0AC2DA4E8BBA4728131202137
:10560C0000192021C57A6AD46ADC8FE596FF31EE49
:10561C0072F64DE52DE5F4F6F8FFD8FFD7FF92F6BC
:10562C00F0ED11EE11EE11EE11EE11EEF0EDF0EDDC
:10563C0031EE92FE8FCD6B948B9476EFCFEDABDC8D
:10564C00ECE40DE502428129E5726EFDCCDCABDCAD
:10565C00D4FE93D6CDA4EDA431EEECE4CBDC31EE4C
:10566C0031EE51F651F651F651F631EE76FFD7FF89
:10567C00B7FFB7FF76FF76FF76FF76FF96FF55FFF5
:10568C0011EE4EEDC8B302522019402100190252FE
:10569C00E5826AD48BDC35FF76FF31F611EE8BDCBC
:1056AC004EE5F4F6F8FFD8FFB7FFB7FFB7FFB7FF2B
:1056BC0076FF76FF76FF76FF96FF35FFF0ED4DED2A
:1056CC00A7ABE249201940210019235A05836ADC53
:1056DC00ABDC76FF35FF31F6F0ED8BDC6EE515FFBC
:1056EC00F8FFD8FFB7FFB7FFB7FFB7FF76FF76FF1E
:1056FC0076FF76FF96FF15FFF0ED2DE567A3C14110
:10570C00201940210019435A068B8ADCCCDC97FF08
:10571C0015FF31F6AFEDECDC10EE35FFF8FFD7FFDF
:10572C00B7FF52F6F0ED55FFB7FFB7FFB7FFB7FF66
:10573C00D7FF15FFF0ED72FE4EBD8C948FCD52FE4F
:10574C006B9447836793067B4029234A2DED2DEDFF
:10575C00ABDCCFEDF9FFD0C5CC9CD0D551FEABDC8A
:10576C00D0ED31EE31EE51F651F651F631EEF4F654
:10577C00F8FFB7FFB7FF96FF76FF76FF76FF76FF51
:10578C0096FF35FF8FED29CCC57AE24920192021EF
:10579C000019435A09C48BDCCCDC76FF72F652F646
:1057AC00AFEDCCDC72F6D8FFD8FFB7FFB7FFB7FF71
:1057BC00B7FF96FF76FF76FF76FF76FF97FF14FF15
:1057CC008EED09C4A47AC14120192021001963620D
:1057DC0029CC8ADC0DE596FF52F652F68FE5ECDC0F
:1057EC0093F6F8FFD8FFB7FFB7FFB7FFB7FF96FFE9
:1057FC0076FF76FF76FF76FF97FFF4F66EEDE8BB4B
:10580C00A472A139201920212021846A4ACC6ADC97
:10581C004DE596FF31F652F66EE50DE5D3F6F8FF41
:10582C00D8FFD8FFB3F6F0ED31EE76FFB7FFB7FF38
:10583C00B7FFB7FFD7FFB3F610F6D0DDCC9C8C9436
:10584C00F0E50DB50A844783678BA1394029A46222
:10585C006EFDECDCABDC92F6B3D66B948B9431E63C
:10586C002DED8BDCF0EDF0ED11EE11EE11EE11EEF5
:10587C00F0ED76FFB3B5AFAC30FE31FE8B9CE98317
:10588C000A844A9410F6F0EDF0ED31EEF0ED6ADC9E
:10589C008BDC8BDCAFEDB3F672F672F676FFF4F6BA
:1058AC0072F672F6B3F672F672F6F4F6D8FFD7FF0C
:1058BC0072F68FE531F6D3FEB3FE97FF8FE5CCE49D
:1058CC00ECE4879B80398031635209B4ECE4CCE47E
:1058DC006ECD0763C0104029CC9C11E611EEF0EDA3
:1058EC00F0EDF0EDF0EDF0EDF0EDD0ED31EE35FF4B
:1058FC0096FF76FF76FF76FF76FF76FF76FF96FFB4
:10590C00D7FFD4F610F66ED5E9830A8CE9834ECD19
:10591C0051FEF0EDF0ED52F6F0ED6ADC8BDC8BDC39
:10592C00CFEDB3F672F672F676FF97FF76FF76FF41
:10593C0076FF76FF76FF76FF76FF96FFD7FFB3F6FE
:10594C0010F64ECDE9830A8CE9838FD531FEF0ED4C
:10595C00F0ED72F6AFED6ADC8BDC8BDCF0EDB3F6C0
:10596C0072F672F676FF96FF76FF76FF76FF76FF7D
:10597C0076FF76FF76FF96FFD7FF92F610FE0DBDF1
:10598C00E9830A8CE983AFDD31FEF0EDF0ED72F6C0
:10599C008FE56ADC8BDC2DE5B3F692F652F614FF3C
:1059AC00B7FFF0EDAFED31EEB3F696FFB7FF76FF34
:1059BC0076FFB7FF15EF8FBD8452A452EDA48FBDB7
:1059CC00B7F7CFFD29BC6793A131E24187932ABC7D
:1059DC00ECE4EDD48FB5444AC010A97BB0BDF0ED1A
:1059EC00F0EDF0EDF0EDF0EDF0EDF0EDD0ED11EEC1
:1059FC00D4F696FF76FF76FF76FF76FF76FF76FF7E
:105A0C0076FF97FF56FFF0ED51FE0DBDE9830A8C32
:105A1C00E983AFE510F6F0EDF0ED31EEABDC8BDCAD
:105A2C008BDC2DE5B3F672F652F615FFB7FF76FF59
:105A3C0076FF76FF76FF76FF76FF76FF76FFB7FF71
:105A4C0035FFD0ED51FECCB4E9830A8C0A84D0E545
:105A5C0010F6F0ED10EE31EE8BDC8BDC8BDC4EE5D2
:105A6C00B3F672F652F635FFB7FF76FF76FF76FF88
:105A7C0076FF76FF76FF76FF76FFB7FF14F7D0ED53
:105A8C0051FEACACE9830A842A8CF0EDF0EDF0ED1C
:105A9C0011EE11EE8BDC8BDC8BDC8EE5B3F672F643
:105AAC0052F676FF93F68FEDAFED52F656FF97FF59
:105ABC0097FF76FF76FFB7FFF4E6A97B0019476BDB
:105ACC00EDA435E7F8FF4EF5E9AB02428131E2492E
